:030000000204BD3A
:0F04BD00787FE4F6D8FD75A0007581560205071B
:10077700415426460D000061747330303D303031EE
:10078700300D000061747330323D303030350D006C
:100797000061747330333D303030303030303030BA
:1007A700303030303030350D000061747A0D000084
:1007B70061742B6A6E0D0000436F6E6E656374651E
:0507C700640A0D0000B2
:10086D000250000002360000024E00000627000173
:04087D000001000175
:1008820075A9A4E4F5A3F5A2F5A4F5A58FA675A113
:020892005322EF
:0708A90075EFAC75D80322C6
:10000300759852758780758921758DDCD28ED2994A
:0A001300D2ACC2ABD2AFE4F52D224F
:10085600D2DC20DCFDE5DA540FFEADD97C00E42DB8
:06086600FFEC3EFEC2DCC7
:01086C002269
:0908A000D287D285C283D28022E6
:10083500C2872086FD85A033D287C2852084FD85A9
:10084500A032D285E532FE7C00E42533FFEC3EFE86
:010855002280
:100809008B098A0A890BC299AB09050BE50BAA0A60
:100819007002050A14F91203B3F5993099FDAB0971
:0C082900AA0AA90B1203B370DDC29922C9
:100026008B178A188919C2983098FDAB170519E500
:1000360019AA187002051814F9E5991203CCE59966
:0D004600B40DE3AB17AA18A919E40203CC0E
:030023000207CC05
:1007CC00C0E0C083C082C0D075D000C2AC309822CB
:1007DC00E599B4740E7B007A00793A120026752DD7
:1007EC0001800DE530B40108E599B5310375300091
:0D07FC00C298D2ACD0D0D082D083D0E032F1
:10041900C2001208358E1A8F1BE4FFFE0FBF0001C0
:100429000EEF64644E70F5D2001208358E1C8F1DD4
:100439000551E55170020550B52824E550B5271F2F
:10044900AC1AAD1BEC1202F97B007A6679D578C635
:1004590012005D1203328E218F22E4F550F5510509
:1004690037E53770020536B52A2DE536B52928ACAA
:100479001CAD1DEC1202F9E4FBFA79FE7842120177
:100489004EE4FBFA79C878421202571203328E2ED3
:100499008F2FE4F536F537054FE54F7002054EB558
:1004A9002C11E54EB52B0C1208568E348F35E4F518
:0304B9004EF54FAE
:0104BC00221D
:0300530002001D8B
:01001D0032B0
:0C0894008D098F31753001E53070FC22B9
:100648008F087BFF7A077977120809E4FD7F4B1240
:1006580008947BFF7A07797E1208097F4F12089465
:100668007F4B1208947BFF7A07798B1208097F4F1A
:100678001208947F4B1208947BFF7A077998120826
:10068800097F4F1208947F4B1208947BFF7A0779F1
:10069800B11208097F4F1208947F4B1208947BFF10
:1006A8007A0779B71208097F4F1208947F4B02081E
:0106B80094AD
:1005CC001200037F011208821208A91208A0120659
:1005DC00487BFF7A0779BF120809E52DB401FB753A
:1005EC000B00750C00750D2C7B007A00793A120506
:1005FC004CAE02AF018E278F280539E53970020504
:10060C0038E52645256030750B00750C00750D2CF2
:10061C007B007A00790012054CAE02AF018E258F5B
:10062C0026E53925E02427F8A62508A6260539E570
:0C063C003970CE053880CAE4F52D809E90
:1000560002039EE86480F8E933E83360110460F037
:10006600ED33EC337009E8FCE9FDEAFEEBFF220410
:1000760060DED3EB9FEA9EE99DE8C2E78CF0C2F70B
:1000860095F0400CE8CCF8E9CDF9EACEFAEBCFFBD7
:1000960012036985D0F05804700320D5B3E80470C4
:1000A600075002B2D50203A892D5EC0460F7E4CC5F
:1000B600C0E0C398F8603B94186008400DD0E0FBA0
:1000C600020380E4FBFAC9FC8028E830E406E4C9B0
:1000D600FBE4CAFCE830E305E4C9CACBFCE85407F4
:1000E6006010F8C3E913F9EA13FAEB13FBEC13FCFF
:1000F600D8F130F52FC3E49CFCEF9BFFEE9AFEEDA2
:1001060099FDD0E0FBEF4E4D4C701222DB0302034B
:10011600A5EC2CFCEF33FFEE33FEED33FDED30E7BF
:10012600EB020380EF2BFFEE3AFEED39FDD0E0FB4C
:1001360050130BBB00030203A8ED13FDEE13FEEFF5
:0801460013FFEC13FC0203801F
:10014E00EC4D6011E8497017ED33EC3304600DE4AB
:10015E00FCFFFEFD22E933E8330470F802039E1221
:10016E00036958046009E4CC248150062850090222
:10017E0003A82840030203A5C0E0EB4A7044B980EF
:10018E0006D0E0FB020394EF4E701CBD8008EBFF1F
:10019E00EAFEE9FD80EBE98DF0A4FEE5F002023700
:1001AE00E9CDF9EAFEEBFFEF89F0A4FCE5F0CE898C
:1001BE00F0A42EFFE435F0CD89F0A42DFEE435F049
:1001CE008067EF4E7005BD80D780C3EF8BF0A4AC77
:1001DE00F0EE8BF0A42CFCE435F0F8EF8AF0A42CB2
:1001EE00E5F038FCE433CB8DF0A42CFCE5F03BF8C5
:1001FE00EE8AF0A42CFCE5F038F8E433CF89F0A4B5
:10020E002CFCE5F038CF3400CE89F0A42FFFE5F0BA
:10021E003EFEE433C98DF0A42EFEE5F039CD8AF012
:10022E00A42FFFE5F03EFEE43DFD33D0E0FB50078A
:10023E000BBB000F0203A8EC2CFCEF33FFEE33FEDA
:06024E00ED33FD02038008
:100254000203A8EC5D046005E85904700302039EE0
:10026400120369580460F6EC4860F2EC7004FDFE79
:10027400FF22C860DB2481C85009C398600250067D
:100284000203A59850CAF582E9294B4A7005AB824E
:1002940002039475F0007C1A7880C3EF9BEE9AED0C
:1002A40099400DC3EF9BFFEE9AFEED99FDE842F0F5
:1002B400DC23ACF0D0E0FFD0E0FED0E0FDAB822048
:1002C400E7101BEB60BAEC2CFCEF33FFEE33FEEDD2
:1002D40033FD020380E803F830E705C0F075F00051
:1002E400EF2FFFEE33FEED33FD40B830E7C280AAB6
:1002F40075F020800E75F010800575F0087D007E85
:10030400007F003392D530D5031203DEEC33401066
:10031400EF33FFEE33FEED33FDEC33FCD5F0ED228D
:0E032400E5F0247EA2D513CC92E7CDCEFF22C9
:10033200EDD2E7CD33EC3392D524814006E4FFFEC3
:10034200FDFC22FCE4CFCECDCC24E0501174FF8022
:10035200EDC3CC13CCCD13CDCE13CECF13CF0470BF
:07036200F030D5DE0203DEDE
:10036900E9D2E7C933E833F892D5EDD2E7CD33ECDA
:0703790033FC5002B2D52253
:10038000EC30E7100FBF000C0EBE00080DBD0004DE
:100390000BEB6014A2D5EB13FCED92E7FD2274FF8A
:1003A000FCFDFEFF22E480F8A2D574FF13FC7D80E3
:0303B000E480EFF7
:1004CC000205CCE493A3F8E493A34003F68001F275
:1004DC0008DFF48029E493A3F85407240CC8C33331
:1004EC00C4540F4420C8834004F456800146F6DF00
:1004FC00E4800B010204081020408090086DE47E1B
:10050C00019360BCA3FF543F30E509541FFEE493F4
:10051C00A360010ECF54C025E060A840B8E493A3BB
:10052C00FAE493A3F8E493A3C8C582C8CAC583CAE6
:10053C00F0A3C8C582C8CAC583CADFE9DEE780BE9E
:010881000076
:1003B300BB010689828A83E0225002E722BBFE0248
:0903C300E32289828A83E493227B
:1003CC00BB010689828A83F0225002F722BBFE0110
:0203DC00F3220A
:0E03DE00C3E49FFFE49EFEE49DFDE49CFC2230
:10054C008B088A09890AE94A4B7009855408855534
:10055C000985560AE50A450945087002802C850B69
:10056C0011850C12850D13AB08AA09A90A1206B93C
:10057C00EF250AF50AEE3509F509AB08FAA90A12B6
:10058C0003B3700AF554F555F556FBFAF922850BB1
:10059C0011850C12850D13AB08AA09A90A12071AAA
:1005AC008B548A558956EA494B600EE41203CC04ED
:1005BC002556F556E43555F555AB08AA09A90A2276
:1006B9008B0E8A0F8910E4F514F515E4FEFFAB11D2
:1006C900AA12A9138F828E831203ECFD6013AB0E5D
:1006D900AA0FA9101203B36D60070FBF00010E80A6
:1006E900DDAB11AA12A9138F828E831203EC70025B
:1006F900801A0515E51570020514AB0E0510E510F5
:100709007002050FF9AA0F1203B370AFAE14AF153B
:0107190022BD
:10071A008B0E8A0F8910851114851215851316AB55
:10072A0014AA15A9161203B3FF6019AB0EAA0FA9D2
:10073A00101203B36F600D74012516F516E4351512
:10074A00F51580DBAB14AA15A9161203B36007AB23
:10075A000EAA0FA91022AB0E0510E510AA0F7002FF
:0D076A00050F14F91203B370ADFBFAF9226C
:1003EC00BB010CE58229F582E5833AF583E02250C6
:1003FC0006E92582F8E622BBFE06E92582F8E22210
:0D040C00E58229F582E5833AF583E4932229
:00000001FF
