:03000000020DA24C
:100DA20043AF01787FE4F6D8FD75A000758120027B
:020DB2000DEF43
:100CC40041545330303D303034300A0D000041542B
:100CD4005330323D303030370A0D00004154533028
:100CE400333D3131313131313131313131313131E2
:100CF40031370A0D000041545A0A0D000041542BAB
:100D04004A4E0A0D000041542B55434153543A3086
:100D14003030303D00506C617A6120313A204C61B2
:100D240020706C617A612065737461206F637570E3
:100D34006164610A0D00506C617A6120313A204C83
:100D44006120706C617A612065737461206C6962E2
:100D540072650A0D00506C617A61203120657374EC
:100D6400E1206C696272650A00506C617A6120311D
:100D740020657374E1206F6375706164610A0045D6
:100D840073706572616E646F206C6C616D61646117
:0E0D94000D00436F6E6E65637465640A0D009A
:1011000042001F000042003A00004200350000414A
:0D11100000390042000000034200370001DA
:10116E0075A9A4E4F5A3F5A2F5A4F5A58FA675A11E
:02117E005322FA
:0711890075EFAC75D80322DD
:10113B00759852758780758921758DDCD28ED29901
:0C114B00D2ACC2ABD2AFE490000BF0229B
:10115700D2DC20DCFDE5DA540FFEADD97C00E42DAE
:06116700FFEC3EFEC2DCBD
:01116D00225F
:09118000D287D285C283D28022FD
:1010AE00A2009283C2872086FD900011E5A0F0D2A7
:1010BE0087C2852084FD900010E5A0F0D285E0FE69
:0A10CE00A3E07C002400FFEC3EFECE
:0110D80022F5
:061012007BFF7A0D790A54
:1010180090003FEBF0A3EAF0A3E9F0C29990003FFB
:10102800E0FBA3E475F001120B88A9F0FA120B5D3E
:10103800F5993099FD90003FE0FBA3E0FAA3E0F9B1
:08104800120B5D70D6C2992263
:060FD3007B017A00792188
:100FD900900042EBF0A3EAF0A3E9F0C2983098FD43
:100FE900900042E0FBA3E475F001120B88A9F0FA26
:100FF900E599120B76E599B40DE1900042E0FBA367
:09100900E0FAA3E0F9E4020B7621
:03002300020E3496
:100E3400C0E0C0F0C083C082C0D075D000C2AC3066
:100E44009865E59964776005E599B4570B120FD35B
:100E540090000B7401F0804DE599647A6005E59982
:100E6400B45A0B120FD390000B7402F08037E5993B
:100E740064746005E599B4540890000B7403F08021
:100E840024E59964666005E599B4460890000B74FE
:100E940004F0801190000EE0B4010AA3E0B59905B6
:100EA40090000EE4F0C298D2ACD0D0D082D083D0DF
:040EB400F0D0E03268
:030053000210D9BF
:1010D900C0E0C083C082C0D090001EE004F0E0B43C
:1010E9000206C280D280E4F09000087401F0D0D0EA
:0710F900D082D083D0E03269
:100EB800C2001210AE900006EEF0A3EFF0FDAC06F3
:100EC800E4120AA37B007A6679D578C6120807125D
:100ED8000ADC900006EEF0A3EFF0E4FFFE0FBF007F
:100EE800010EBE03F8BFE8F5D2001210AE90000C58
:100EF800EEF0A3EFF0FDAC06E4120AA3E4FBFA79E6
:100F0800FE78421208F8E4FBFA79C87842120A011E
:0B0F1800120ADC90000CEEF0A3EFF0DA
:010F230022AB
:10111E0090003FEDF090000FEFF090000E7401F094
:0D112E0090000EE070FA90000E7401F022A7
:100F8E0090003EEFF07BFF7A0C79C4121018E4FD4E
:100F9E007F4F12111E7BFF7A0C79D212101812118C
:100FAE001E7BFF7A0C79E012101812111E7BFF7A4D
:100FBE000C79FA12101812111E7BFF7A0D7901129C
:050FCE00101802111EC5
:10105000900000E07004A3E06402700C1210127B98
:10106000FF7A0D7919121018900000E07004A3E0C7
:101070006403700C1210127BFF7A0D793A1210186B
:01108000224D
:0B0F240012115790001CEEF0A3EFF03C
:100F2F00900000E0FEA3E0FF64034E7026C3900024
:100F3F001DE094DC90001CE094055042900000E40A
:100F4F00F0A37402F090000B04F090001FE4F0A3E4
:100F5F0004F022EF64024E7025C390001DE094DC74
:100F6F0090001CE094054016900000E4F0A3740379
:0F0F7F00F090000BF090001FE4F0A37402F0223A
:100BAC0090000BE0B40113900037E4F0A304F0E4E0
:100BBC0090000BF0900035F0A3F090000BE0B40225
:100BCC0014900037E4F0A37402F0E490000BF09062
:100BDC000035F0A3F0900037E07004A3E0640170DE
:100BEC0042900008E0B4013B90001FE0FEA3E0FF40
:100BFC00C390003BE09FEE6480F890003AE0648084
:100C0C0098500EA3E004F0701590003AE004F080C8
:100C1C000D120F24121050E490003AF0A3F0E4905F
:100C2C000008F0900037E07004A3E0640260030257
:100C3C000CC3120F24E4900008F090000BE0FFB4FA
:100C4C000305121050803DEFB4041A900000E070C0
:100C5C0004A3E06403700C1210127BFF7A0D795917
:100C6C00121018801F90000BE0B4051E900000E0DD
:100C7C007004A3E06402700C1210127BFF7A0D79E1
:100C8C006D121018E490000BF022C3900036E09423
:100C9C0001900035E064809480501C1210127BFF90
:100CAC007A0D7983121018900036E004F070DB9006
:080CBC000035E004F080D322B2
:1010810012113B12118012118912113B120F8E9015
:10109100001E744FF0E4900008F07BFF7A0D799602
:0D10A1001210187F0112116E120BAC80FBB3
:10080000020B48E86480F8E933E83360110460F0D3
:10081000ED33EC337009E8FCE9FDEAFEEBFF22045E
:1008200060DED3EB9FEA9EE99DE8C2E78CF0C2F759
:1008300095F0400CE8CCF8E9CDF9EACEFAEBCFFB25
:10084000120B1385D0F05804700320D5B3E8047060
:10085000075002B2D5020B5292D5EC0460F7E4CCFB
:10086000C0E0C398F8603B94186008400DD0E0FBEE
:10087000020B2AE4FBFAC9FC8028E830E406E4C94C
:10088000FBE4CAFCE830E305E4C9CACBFCE8540742
:100890006010F8C3E913F9EA13FAEB13FBEC13FC4D
:1008A000D8F130F52FC3E49CFCEF9BFFEE9AFEEDF0
:1008B00099FDD0E0FBEF4E4D4C701222DB03020B92
:1008C0004FEC2CFCEF33FFEE33FEED33FDED30E764
:1008D000EB020B2AEF2BFFEE3AFEED39FDD0E0FBE9
:1008E00050130BBB0003020B52ED13FDEE13FEEF92
:0808F00013FFEC13FC020B2ABC
:1008F800EC4D6011E8497017ED33EC3304600DE4FA
:10090800FCFFFEFD22E933E8330470F8020B4812BD
:100918000B1358046009E4CC2481500628500902BE
:100928000B52284003020B4FC0E0EB4A7044B980D9
:1009380006D0E0FB020B3EEF4E701CBD8008EBFFBB
:10094800EAFEE9FD80EBE98DF0A4FEE5F00209E19D
:10095800E9CDF9EAFEEBFFEF89F0A4FCE5F0CE89DA
:10096800F0A42EFFE435F0CD89F0A42DFEE435F097
:100978008067EF4E7005BD80D780C3EF8BF0A4ACC5
:10098800F0EE8BF0A42CFCE435F0F8EF8AF0A42C00
:10099800E5F038FCE433CB8DF0A42CFCE5F03BF813
:1009A800EE8AF0A42CFCE5F038F8E433CF89F0A403
:1009B8002CFCE5F038CF3400CE89F0A42FFFE5F009
:1009C8003EFEE433C98DF0A42EFEE5F039CD8AF061
:1009D800A42FFFE5F03EFEE43DFD33D0E0FB5007D9
:1009E8000BBB000F020B52EC2CFCEF33FFEE33FE77
:0609F800ED33FD020B2AA5
:1009FE00020B52EC5D046005E859047003020B48CB
:100A0E00120B13580460F6EC4860F2EC7004FDFE15
:100A1E00FF22C860DB2481C85009C39860025006CB
:100A2E00020B4F9850CAF582E9294B4A7005AB82EA
:100A3E00020B3E75F0007C1A7880C3EF9BEE9AEDA8
:100A4E0099400DC3EF9BFFEE9AFEED99FDE842F043
:100A5E00DC23ACF0D0E0FFD0E0FED0E0FDAB822096
:100A6E00E7101BEB60BAEC2CFCEF33FFEE33FEED20
:100A7E0033FD020B2AE803F830E705C0F075F000ED
:100A8E00EF2FFFEE33FEED33FD40B830E7C280AA04
:100A9E0075F020800E75F010800575F0087D007ED3
:100AAE00007F003392D530D503120B9EEC334010ED
:100ABE00EF33FFEE33FEED33FDEC33FCD5F0ED22DC
:0E0ACE00E5F0247EA2D513CC92E7CDCEFF2218
:100ADC00EDD2E7CD33EC3392D524814006E4FFFE12
:100AEC00FDFC22FCE4CFCECDCC24E0501174FF8071
:100AFC00EDC3CC13CCCD13CDCE13CECF13CF04700E
:070B0C00F030D5DE020B9E64
:100B1300E9D2E7C933E833F892D5EDD2E7CD33EC28
:070B230033FC5002B2D522A1
:100B2A00EC30E7100FBF000C0EBE00080DBD00042C
:100B3A000BEB6014A2D5EB13FCED92E7FD2274FFD8
:100B4A00FCFDFEFF22E480F8A2D574FF13FC7D8031
:030B5A00E480EF45
:100DB400021081E493A3F8E493A34003F68001F2C4
:100DC40008DFF48029E493A3F85407240CC8C33340
:100DD400C4540F4420C8834004F456800146F6DF0F
:100DE400E4800B0102040810204080901100E47E8E
:100DF400019360BCA3FF543F30E509541FFEE49304
:100E0400A360010ECF54C025E060A840B8E493A3CA
:100E1400FAE493A3F8E493A3C8C582C8CAC583CAF5
:100E2400F0A3C8C582C8CAC583CADFE9DEE780BEAD
:01111D0000D1
:100B5D00BB010689828A83E0225002E722BBFE0296
:090B6D00E32289828A83E49322C9
:100B7600BB010689828A83F0225002F722BBFE015E
:020B8600F32258
:100B8800A3F8E0C5F025F0F0E58215827002158320
:060B9800E0C838F0E8227D
:0E0B9E00C3E49FFFE49EFEE49DFDE49CFC2268
:00000001FF
