:0300000002018278
:0F018200787FE4F6D8FD75A00075812A02015A36
:10000300415426460D0041545331323D3035393089
:0F0013000D00436F6E6E65637465640A0D000027
:1001700075A9A4E4F5A3F5A2F5A4F5A58FA675A12C
:02018000532208
:0701A60075EFAC75D80322D0
:10012900759852758780758921758DDCD28ED29923
:0A013900D2ACC2ABD2AFE4F508224D
:10014300D2DC20DCFDE5DA540FFEADD97C00E42DD2
:06015300FFEC3EFEC2DCE1
:010159002283
:09019D00D287D285C283D28022F0
:1000EA00C2872086FD85A00CD287C2852084FD8523
:1000FA00A00BD285E50BFE7C00E4250CFFEC3EFE4E
:01010A0022D2
:100093008B238A248925C299AB230525E525AA2428
:1000A3007002052414F91200BFF5993099FDAB23B2
:0C00B300AA24A9251200BF70DDC299220A
:100026008B268A278928C2983098FDAB260528E5B5
:1000360028AA277002052714F9E5991200D8E59930
:0D004600B40DE3AB26AA27A928E40200D8D8
:0300230002005682
:10005600C0E0C083C082C0D075D000C2AC30982248
:10006600E599B4740E7B007A00790D1200267508A6
:1000760001800DE509B40108E599B50A0375090083
:0D008600C298D2ACD0D0D082D083D0E0326E
:0300530002002286
:0100220032AB
:0C0191008D298F0A750901E50970FC2218
:10010B008F2A7BFF7A007903120093E4FD7F4B1259
:0E011B0001917BFF7A00790912009302019195
:10015A001201297BFF7A007915120093E508B40190
:06016A00FBE4F50880F63D
:1000BF00BB010689828A83E0225002E722BBFE023F
:0900CF00E32289828A83E4932272
:1000D800BB010689828A83F0225002F722BBFE0107
:0200E800F32201
:00000001FF
