:03000000020117E3
:0F011700787FE4F6D8FD75A00075814C02016178
:10005600415426460D000041545331323D30353966
:10006600300D000041545330303D313030300D00FA
:100076000041545330323D303130300D0000415490
:100086005330333D3131313131313131313131312B
:10009600313131320D000041542B4A4E0D000053D0
:1000A6006520766120612067756172646172206CDB
:1000B6006120706F736963696F6E20696E63696131
:1000C6006C206465206C61207461726A65746120BD
:1000D6000A0000436F6E6E65637465640A0D004521
:1000E6006D70657A616D6F732061206C6565720D48
:1000F600000041542B55434153543A303030302C94
:10010600000028582C59293A2031352C32360A005D
:0101160000E8
:04001D0002210000BC
:1004390075A9A4E4F5A3F5A2F5A4F5A58FA675A160
:0204490053223C
:07045E0075EFAC75D8032215
:10000300759852758780758921758DDCD28ED2994A
:0A001300D2ACC2ABD2AFE4F52C2250
:10042200D2DC20DCFDE5DA540FFEADD97C00E42DF0
:06043200FFEC3EFEC2DCFF
:0104380022A1
:09045500D287D285C283D2802235
:1003E300A2009283C2872086FD85A035D287C2856D
:1003F3002084FD85A034D285E534FE7C00E42535D8
:04040300FFEC3EFECE
:0104070022D2
:030053000204089C
:10040800C0E0C0D00536E536B40207C280D2807598
:0A0418003600752901D0D0D0E03283
:100368008B098A0A890BC299AB09050BE50BAA0A06
:100378007002050A14F91201A6F5993099FDAB0926
:0C038800AA0AA90B1201A670DDC299227E
:100026008B0C8A0D890EC2983098FDAB0C050EE537
:100036000EAA0D7002050D14F9E5991201BFE59996
:0D004600B40DE3AB0CAA0DA90EE40201BF3E
:030023000202C610
:1002C600C0E0C083C082C0D075D000C2AC309822D6
:1002D600E599B4740E7B007A007937120026752CE6
:1002E60001800DE52EB40108E599B52F03752E00A2
:0D02F600C298D2ACD0D0D082D083D0E032FC
:100303000522E52270020521AC27AD28AE21FF129C
:1003130001D1ED4C7012D2001203E38E258F26C259
:10032300001203E38E238F24E4FFFE0FBF00010EB0
:06033300EF64644E70F55A
:0103390022A1
:04033A00E4FD7F4B14
:04033E008F098D0A8C
:1003420085092F752E01E52E70FC750B0112044BE9
:10035200EFB50905E4F50B8008E50AB401031203C1
:05036200BCE50B70E892
:010367002273
:10027A007BFF7A00795612036812033A7BFF7A00F1
:10028A00795D12036812033A7BFF7A00796A1203D6
:10029A006812033A7BFF7A00797712036812033AED
:1002AA007BFF7A00798412036812033A7BFF7A0093
:0C02BA00799D120368E4FD7F4B02033EB7
:10039400E4FD7F5512033EE4FD7F3A12033E7D01E6
:1003A4007F2C12033E7F091203BCE4FD7F3D120340
:0803B4003E7D017F0302033EC0
:1002260075364FE4F5297F0112043912045E120077
:100236000312045512027A7527007528057BFF7A8A
:100246000079A51203687BFF7A0079D9120368E565
:1002560029B401FB7BFF7A0079E51203687BFF7AFC
:100266000079F81203687BFF7A017908120368E4C3
:04027600F52980DB0B
:10012600020226E493A3F8E493A34003F68001F2C7
:1001360008DFF48029E493A3F85407240CC8C333DA
:10014600C4540F4420C8834004F456800146F6DFA9
:10015600E4800B010204081020408090001DE47E1C
:10016600019360BCA3FF543F30E509541FFEE4939E
:10017600A360010ECF54C025E060A840B8E493A365
:10018600FAE493A3F8E493A3C8C582C8CAC583CA90
:10019600F0A3C8C582C8CAC583CADFE9DEE780BE48
:0100210000DE
:1001A600BB010689828A83E0225002E722BBFE0257
:0901B600E32289828A83E493228A
:1001BF00BB010689828A83F0225002F722BBFE011F
:0201CF00F32219
:1001D100BC000BBE0029EF8DF084FFADF022E4CC12
:1001E100F875F008EF2FFFEE33FEEC33FCEE9DECDB
:1001F100984005FCEE9DFE0FD5F0E9E4CEFD22ED21
:10020100F8F5F0EE8420D21CFEADF075F008EF2F6A
:10021100FFED33FD4007985006D5F0F222C398FD5B
:050221000FD5F0EA22F8
:1003BC00EFB40A07740D1203C7740A309811A89988
:1003CC00B8130CC2983098FDA899C298B811F630A1
:0703DC0099FDC299F5992279
:0A044B003098FDAF99C2987E0022A0
:00000001FF
