:030000000213E503
:0F13E500787FE4F6D8FD75A00075816E02142F95
:10120A00415426460D000041545331323D303539A0
:10121A00300D000041545330303D313030300D0034
:10122A000041545330323D303130300D00004154CA
:10123A005330333D31313131313131313131313165
:10124A00313131320D000041542B4A4E0D00004E0F
:10125A006F646F20313A204C6120706C617A612092
:10126A006163616261206465206F63757061727386
:10127A0065004E6F646F20313A204C6120706C61BA
:10128A007A6120657374616261206F63757061644D
:10129A0061004E6F646F20313A204C6120706C619E
:1012AA007A612065737461206C6962726500436FAC
:1012BA006E6E65637465640A0D00455374616D6FE3
:1012CA007320656E2065737461646F203100546504
:1012DA006D70657261747572613D2025640A0048FB
:1012EA00756D656461643D2025640A004C44523D75
:1012FA002025640A00457374616D6F7320656E2042
:09130A0065737461646F20320008
:08175F0002220003024C00010C
:10173A0075A9A4E4F5A3F5A2F5A4F5A58FA675A14C
:02174A00532228
:0717680075EFAC75D80322F8
:1016EF00759852758780758921758DDCD28ED29948
:0A16FF00C2ACC2ABD2AFE4F52D225D
:10172300D2DC20DCFDE5DA540FFEADD97C00E42DDC
:06173300FFEC3EFEC2DCEB
:01173900228D
:09175600D287D285C283D2802221
:1016CA00A2009283C2872086FD85A034D287C28574
:1016DA002084FD85A033D285E533FE7C00E42534E1
:0416EA00FFEC3EFED5
:0116EE0022D9
:0300530002170988
:10170900C0E0C0D00537E537B40207C280D2807582
:0A1719003700752A01D0D0D0E0326D
:10164F008B508A518952C299AB500552E552AA511B
:10165F007002055114F9120CFFF5993099FDAB503A
:0C166F00AA51A952120CFF70DDC2992292
:101622008B6C8A6D896EC2983098FDAB6C056EE545
:101632006EAA6D7002056D14F9E599120D45E599D2
:0D164200B40DE3AB6CAA6DA96EE4020D457A
:0300230002158340
:10158300C0E0C083C082C0D075D000C2AC30982206
:10159300E599B4740E7B007A007938121622752D02
:1015A30001800DE531B40108E599B53203753100C9
:0D15B300C298D2ACD0D0D082D083D0E0322C
:1014D700C2001216CA8E288F29AC28AD29E4120A39
:1014E700A37B007A6679D578C6120807120ADC8EC4
:1014F700288F29E4FFFE0FBF00010EEF64644E70D2
:10150700F5D2001216CA8E2F8F30AC2FAD30E412F1
:101517000AA3E4FBFA79FE78421208F8E4FBFA79A9
:0D152700C87842120A01120ADC8E2F8F30A4
:011534002294
:0415F400E4FD7F4B48
:0415F8008F088D09C2
:1015FC00850832753101E53170FC750A0112174C02
:10160C00EFB50805E4F50A8008E509B401031216E4
:05161C00A3E50A70E8DF
:0116210022A6
:021535008F0B1A
:101537007BFF7A12790A12164F1215F47BFF7A1283
:10154700791112164F1215F47BFF7A12791E1216B3
:101557004F1215F47BFF7A12792B12164F1215F4DE
:101567007BFF7A12793812164F1215F47BFF7A1225
:0C157700795112164FE4FD7F4B0215F86D
:10167B00E4FD7F551215F8E4FD7F3A1215F87D0154
:10168B007F2C1215F87F091216A3E4FD7F3D12156E
:08169B00F87D017F030215F840
:10147400E52364034522701CC3E53694DCE535940A
:1014840005504FE52994F0E528940A40457522005B
:1014940075230122E52364014522701DC3E53694BA
:1014A400DCE5359405502BC3E52994F0E528940A2E
:1014B400502075220075230222E523640245227020
:1014C40011D3E53694DCE5359405400675220075A4
:0314D400230322CD
:1015C000E5236401452270097BFF7A1279591216CE
:1015D0004FE5236402452270097BFF7A12797C1261
:1015E000164FE5236403452270097BFF7A12799C2C
:0415F00012164F225E
:01176F002257
:101313001217561217681216EF7F0112173AE4F5E7
:1013230037F52A7BFF7A1279B8120DFDE54D64017A
:10133300454C70507BFF7A1279C4120DFDE52AB437
:1013430001FB1214D71214747BFF7A1279D8852803
:1013530053852954120DFD7BFF7A1279E9852F53AA
:10136300853054120DFD1217238E358F367BFF7A8D
:101373001279F6853553853654120DFD1215C0E4E6
:10138300F52A80B9E54D6402454C70557BFF7A120E
:1013930079FF120DFD7F0112173AE52AB401F61207
:1013A30014D71214747BFF7A1279D88528538529B0
:1013B30054120DFD7BFF7A1279E9852F5385305442
:1013C300120DFD1217238E358F367BFF7A1279F6B5
:1013D300853553853654120DFD1215C0E4F52A8068
:0213E300B42232
:10080000020B48E86480F8E933E83360110460F0D3
:10081000ED33EC337009E8FCE9FDEAFEEBFF22045E
:1008200060DED3EB9FEA9EE99DE8C2E78CF0C2F759
:1008300095F0400CE8CCF8E9CDF9EACEFAEBCFFB25
:10084000120B1385D0F05804700320D5B3E8047060
:10085000075002B2D5020B5292D5EC0460F7E4CCFB
:10086000C0E0C398F8603B94186008400DD0E0FBEE
:10087000020B2AE4FBFAC9FC8028E830E406E4C94C
:10088000FBE4CAFCE830E305E4C9CACBFCE8540742
:100890006010F8C3E913F9EA13FAEB13FBEC13FC4D
:1008A000D8F130F52FC3E49CFCEF9BFFEE9AFEEDF0
:1008B00099FDD0E0FBEF4E4D4C701222DB03020B92
:1008C0004FEC2CFCEF33FFEE33FEED33FDED30E764
:1008D000EB020B2AEF2BFFEE3AFEED39FDD0E0FBE9
:1008E00050130BBB0003020B52ED13FDEE13FEEF92
:0808F00013FFEC13FC020B2ABC
:1008F800EC4D6011E8497017ED33EC3304600DE4FA
:10090800FCFFFEFD22E933E8330470F8020B4812BD
:100918000B1358046009E4CC2481500628500902BE
:100928000B52284003020B4FC0E0EB4A7044B980D9
:1009380006D0E0FB020B3EEF4E701CBD8008EBFFBB
:10094800EAFEE9FD80EBE98DF0A4FEE5F00209E19D
:10095800E9CDF9EAFEEBFFEF89F0A4FCE5F0CE89DA
:10096800F0A42EFFE435F0CD89F0A42DFEE435F097
:100978008067EF4E7005BD80D780C3EF8BF0A4ACC5
:10098800F0EE8BF0A42CFCE435F0F8EF8AF0A42C00
:10099800E5F038FCE433CB8DF0A42CFCE5F03BF813
:1009A800EE8AF0A42CFCE5F038F8E433CF89F0A403
:1009B8002CFCE5F038CF3400CE89F0A42FFFE5F009
:1009C8003EFEE433C98DF0A42EFEE5F039CD8AF061
:1009D800A42FFFE5F03EFEE43DFD33D0E0FB5007D9
:1009E8000BBB000F020B52EC2CFCEF33FFEE33FE77
:0609F800ED33FD020B2AA5
:1009FE00020B52EC5D046005E859047003020B48CB
:100A0E00120B13580460F6EC4860F2EC7004FDFE15
:100A1E00FF22C860DB2481C85009C39860025006CB
:100A2E00020B4F9850CAF582E9294B4A7005AB82EA
:100A3E00020B3E75F0007C1A7880C3EF9BEE9AEDA8
:100A4E0099400DC3EF9BFFEE9AFEED99FDE842F043
:100A5E00DC23ACF0D0E0FFD0E0FED0E0FDAB822096
:100A6E00E7101BEB60BAEC2CFCEF33FFEE33FEED20
:100A7E0033FD020B2AE803F830E705C0F075F000ED
:100A8E00EF2FFFEE33FEED33FD40B830E7C280AA04
:100A9E0075F020800E75F010800575F0087D007ED3
:100AAE00007F003392D530D503120D57EC33401032
:100ABE00EF33FFEE33FEED33FDEC33FCD5F0ED22DC
:0E0ACE00E5F0247EA2D513CC92E7CDCEFF2218
:100ADC00EDD2E7CD33EC3392D524814006E4FFFE12
:100AEC00FDFC22FCE4CFCECDCC24E0501174FF8071
:100AFC00EDC3CC13CCCD13CDCE13CECF13CF04700E
:070B0C00F030D5DE020D57A9
:100D9B00E5672453F8E6056722785030070278534D
:100DAB00E475F001120D65020CFF2000EB7F2ED2D3
:100DBB00008018EF540F2490D43440D4FF30040B30
:100DCB00EF24BFB41A0050032461FFE568600215DD
:100DDB0068056BE56B7002056A30070D7850E4759A
:100DEB00F001120D65EF020D450216A37403D20735
:100DFB008003E4C207F5678B508A518952E4F5688A
:100E0B00F56AF56BE56860077F20120DD680F575E6
:100E1B0069FFC201C200C202C203C205C206C208F8
:100E2B00120DA4FF700D3007057F00120DE7AF6B9D
:100E3B00AE6A22B4255FC2D5C204120DA4FF24D022
:100E4B00B40A00501A75F00A786830D50508B6FF59
:100E5B000106C6A426F620D5047002D20380D9243D
:100E6B00CFB41A00EF5004C2E5D2040210D4D20161
:100E7B0080C6D20080C0D20280BCD2D580BAD20547
:100E8B0080B47F20120DD62002077401B568004094
:100E9B00F1120D9BFF120DD6020E0FD208D2068057
:100EAB0095120D9BFB120D9BFA120D9BF94A4B7081
:100EBB000679CB7A117BFF20022EE568602A7E0033
:100ECB008E82758300120D1860060EEE656970F048
:100EDB00C2D5EBC0E0EAC0E0E9C0E0EE121134D0BD
:100EEB00E0F9D0E0FAD0E0FB120CFFFF60AAEBC0F8
:100EFB00E0EAC0E0E9C0E0120DD6D0E02401F9D061
:100F0B00E03400FAD0E0FBE5690460DCD569D980F8
:100F1B0087D20280A212111760F7E56970010412E3
:100F2B000B5DA969600DE569600914F5691211BEC5
:100F3B00EF60F3EA30E702F404C3995077EAF42543
:100F4B00690430E701E404F569800D12111760C1E3
:100F5B00EA05692569120B5DEA7866F630E701E46C
:100F6B00256904D5690420050114121134E4C0E08D
:100F7B001211BE7866E6601320E70714F6120DBE59
:100F8B00802204F6D0E014C0E07F00120DBEE569AC
:100F9B006007120DB51569800B300503120DB5D026
:100FAB00E0020E0FD0E00480C512111760A0E569B6
:100FBB0004120B5D7866EAF6E56920050260010410
:050FCB002404121134A2
:100FD00074FF04C0E01211BE120DBEE569200502C7
:100FE0006003120DB5D0E0B569E87F45120DC878F1
:100FF00066E67F2B30E7047F2DF404C0E0120DD6A7
:10100000D0E075F00A84C0F0120DBFD0E0120DBF21
:10101000020E0F791080027908C206C2088008D239
:10102000D5790A8004790AC2D5E569047002F569A8
:10103000E4FAFDFEFF120D9BFC7B08200113120D4C
:101040009BFD7B1030000A120D9BFE120D9BFF7B57
:1010500020EC3382D592D55013C3E43000069FFFB5
:10106000E49EFEE42001039DFDE49CFCE4CBF8C279
:1010700001EC700CCFCECDCCE824F8F870F38017DB
:10108000C3EF33FFEE33FEED33FDEC33FCEB33FB0C
:10109000994002FB0FD8E9EB300105F8D0E0C448D5
:1010A000B201C0E00AEC4D4E4F78207B0070C2EADE
:1010B000B5690040BCC0E0121136D0F0D0E020018C
:1010C00004C4C0E0C4B201C0F0120DBFD0F0D5F02E
:1010D000EB020E0F120D750EAC531013580E7D4C13
:1010E0000E794210174F101F44101F490E924310E3
:1010F00025550F56460FB4450F204711EB500E8172
:101100002D0E852E0EA82B0E89230EA62011D42A73
:101110000E414800000EA0E569B4FF037569061290
:101120000D9BFC120D9BFD120D9BFE120D9BFF787B
:101130005F020B8C790AA2D5200314300509B9107F
:10114000020404B9080104A2D520060250010420BB
:1011500002689202B568005034C0E07F2030031965
:101160007F30A20272067205500F12118DC202C2A8
:1011700006C205C2087F30800F300503E9C0E012C7
:101180000DD6300503D0E0F9D0E0B568CC300517B6
:101190007F30B9100C120DD67F583004077F78804D
:1011A00003B90803120DD63002057F2D020DD67F3C
:1011B000202008F87F2B2006F322920280CF7F00A8
:1011C000B407005005245FF8E6FF22286E756C6CAA
:1011D0002900D201120D9B3001F8C201786830D588
:1011E0000108F6020E412D50434958120D9B24036D
:1011F000B405004001E49011E693120DC7743A1251
:0A1200000DC7D20375680402101335
:100B1300E9D2E7C933E833F892D5EDD2E7CD33EC28
:070B230033FC5002B2D522A1
:100B2A00EC30E7100FBF000C0EBE00080DBD00042C
:100B3A000BEB6014A2D5EB13FCED92E7FD2274FFD8
:100B4A00FCFDFEFF22E480F8A2D574FF13FC7D8031
:030B5A00E480EF45
:100B5D00F920E72824F950037907E4F42402FB185F
:100B6D00DBFDE624FB5014E9600DE4F618E604F60F
:0F0B7D00B40A08E4F6D9F57401F60A22C2D522AB
:100B8C00ED33EC3392D5FA602AB4FF33EDC2E77B38
:100B9C00FF60067A0B79B1E4227A0B79BA20D5047E
:100BAC007A0B79B5224E614E002B494E46002D49E9
:100BBC004E4600E47A08F608DAFC7B00740722E85B
:100BCC00C0E0ECC0E0EDC0E0EEC0E0EFC0E0EA75E4
:100BDC00F010A4CAABF075F04DA42BFBE435F0FC7F
:100BEC00EA2410FAEB34C5FBEC34D9FCEDC2E7FF78
:100BFC0075F056A4F42411C5F0F434C58FF0A42A72
:100C0C00E5F03BE43CF620E714120CBFD0E0FFD03B
:100C1C00E0FED0E0FDD0E0FC120A018014F40412D6
:100C2C000CBFD0E0FFD0E0FED0E0FDD0E0FC12081D
:100C3C00F8D0E0F8E6FAEDD2E7CD33EC332482FBC2
:100C4C00E4C3CF33CFCE33CECD33CD33DBF37B0701
:100C5C0075F00A846004F6081B0AE5F0F6088FF0BC
:100C6C00740AA4FFACF08EF0740AA42CFEACF05005
:100C7C00010C8DF0740AA42CFDE435F0F608DBDED3
:030C8C00740722C8
:100C8F003F8000004120000042C80000447A00006D
:100C9F00461C400047C35000497424004B189680EF
:100CAF004CBEBC205A0E1BCA6753C21C749DC5AEE6
:100CBF00FB60065407601C2323120CEDEB543860C5
:100CCF0009120CD9120CE81208F8ECF8EDF9EEFA4B
:100CDF00EFCB22EB120CE880F1543803241C900C5C
:100CEF008FFE93FC0EEE93FD0EEE930ECE93FF222E
:1013F400021313E493A3F8E493A34003F68001F2E9
:1014040008DFF48029E493A3F85407240CC8C333F9
:10141400C4540F4420C8834004F456800146F6DFC8
:10142400E4800B010204081020408090175FE47EE2
:10143400019360BCA3FF543F30E509541FFEE493BD
:10144400A360010ECF54C025E060A840B8E493A384
:10145400FAE493A3F8E493A3C8C582C8CAC583CAAF
:10146400F0A3C8C582C8CAC583CADFE9DEE780BE67
:011767000081
:100CFF00BB010689828A83E0225002E722BBFE02F3
:090D0F00E32289828A83E4932225
:100D1800BB010CE58229F582E5833AF583E0225090
:100D280006E92582F8E622BBFE06E92582F8E222DA
:0D0D3800E58229F582E5833AF583E49322F4
:100D4500BB010689828A83F0225002F722BBFE018D
:020D5500F32287
:0E0D5700C3E49FFFE49EFEE49DFDE49CFC22AD
:100D6500FAE6FB0808E6F925F0F618E6CA3AF6228F
:100D7500D083D082F8E4937012740193700DA3A30D
:100D850093F8740193F5828883E473740293686021
:060D9500EFA3A3A380DF21
:1016A300EFB40A07740D1216AE740A309811A89994
:1016B300B8130CC2983098FDA899C298B811F630A7
:0716C30099FDC299F599227F
:0A174C003098FDAF99C2987E00228C
:00000001FF
