:030000000213E800
:0F13E800787FE4F6D8FD75A000758140021432BD
:101353004E6F646F20313A204C6120706C617A616A
:10136300206163616261206465206F6375706172DF
:101373007365004E6F646F20313A204C6120706CAE
:10138300617A6120657374616261206F6375706156
:101393006461004E6F646F20313A204C6120706CA1
:1013A300617A612065737461206C696272650054AF
:1013B300656D7065726174757261203D2025640AE4
:1013C3000048756D65646164203D2025640A004C06
:1013D3004452203D2025640A00436F6E6E6563749A
:0513E30065640A0D0025
:08166D0002080003021A00014B
:1016480075A9A4E4F5A3F5A2F5A4F5A58FA675A13F
:0216580053221B
:0716760075EFAC75D80322EB
:10161A00759852758780758921758DDCD28ED2991D
:07162A00C2ACC2ABD2AF223B
:10163100D2DC20DCFDE5DA540FFEADD97C00E42DCF
:06164100FFEC3EFEC2DCDE
:011647002280
:09166400D287D285C283D2802214
:1015BB00A2009283C2872086FD85A016D287C285A2
:1015CB002084FD85A015D285E515FE7C00E425164B
:0415DB00FFEC3EFEE5
:0115DF0022E9
:0300530002160092
:10160000C0E0C0D00519E519B40207C280D28075C8
:0A1610001900751001D0D0D0E032AF
:1014DA00C2001215BB8E0E8F0FAC0EAD0FE4120AAE
:1014EA00A37B007A6679D578C6120807120ADC8EC1
:1014FA000E8F0FE4FFFE0FBF00010EEF64644E7003
:10150A00F5D2001215BB8E138F14AC13AD14E4126E
:10151A000AA3E4FBFA79FE78421208F8E4FBFA79A6
:0D152A00C87842120A01120ADC8E138F14D9
:011537002291
:0415E0008F3E8D3F6E
:1015E40075400112165AEFB53E05E4F5408008E552
:0B15F4003FB40103121594E54070E8BD
:0115FF0022C9
:03167D008F1E229B
:10156C00E4FD7F551215E0E4FD7F3A1215E07D0194
:10157C007F2C1215E07F09121594E4FD7F3D1215A6
:08158C00E07D017F030215E080
:10120A00D3E50F9419E50E940040047F0180027F14
:10121A0000C3E51894E8E517940350047E018002A0
:10122A007E00EE5FFFE5096403450870047E0180D5
:10123A00027E00EE5F600775080075090122D3E59A
:10124A000F9419E50E940050047F0180027F00C3B9
:10125A00E51894E8E517940350047E0180027E00A5
:10126A00EE5FFFE5096401450870047E0180027E95
:10127A0000EE5F600775080075090222E50964023D
:10128A00450870047F0180027F00C3E51894E8E5F1
:10129A0017940340047E0180027E00EE5F600675AB
:0612AA0008007509032293
:10153800E5096401450870097BFF7A137953120D98
:10154800FDE5096402450870097BFF7A1379761274
:101558000DFDE5096403450870097BFF7A13799648
:04156800120DFD2241
:011680002247
:1012B000E51B6401451A704C7F01121648E510B415
:1012C00001F61214DA12120A7BFF7A1379B2850E34
:1012D00025850F26120DFD7BFF7A1379C485132512
:1012E000851426120DFD1216318E178F187BFF7A8A
:1012F0001379D2851725851826120DFD121538E4AD
:10130000F51080B4E51B6402451A7046E5106401CF
:1013100070401214DA12120A7BFF7A1379B2850E2A
:1013200025850F26120DFD7BFF7A1379C4851325C1
:10133000851426120DFD1216318E178F187BFF7A39
:101340001379D2851725851826120DFD121538E45C
:03135000F5102273
:1014770012166412167612161AE4F519F5107BFF88
:101487007A1379DC120DFD7F01121648E510B401BD
:10149700F61214DA12120A7BFF7A1379B2850E2537
:1014A700850F26120DFD7BFF7A1379C485132585D9
:1014B7001426120DFD1216318E178F187BFF7A1323
:1014C70079D2851725851826120DFD121538E4F5F2
:0314D7001080B4CE
:10080000020B48E86480F8E933E83360110460F0D3
:10081000ED33EC337009E8FCE9FDEAFEEBFF22045E
:1008200060DED3EB9FEA9EE99DE8C2E78CF0C2F759
:1008300095F0400CE8CCF8E9CDF9EACEFAEBCFFB25
:10084000120B1385D0F05804700320D5B3E8047060
:10085000075002B2D5020B5292D5EC0460F7E4CCFB
:10086000C0E0C398F8603B94186008400DD0E0FBEE
:10087000020B2AE4FBFAC9FC8028E830E406E4C94C
:10088000FBE4CAFCE830E305E4C9CACBFCE8540742
:100890006010F8C3E913F9EA13FAEB13FBEC13FC4D
:1008A000D8F130F52FC3E49CFCEF9BFFEE9AFEEDF0
:1008B00099FDD0E0FBEF4E4D4C701222DB03020B92
:1008C0004FEC2CFCEF33FFEE33FEED33FDED30E764
:1008D000EB020B2AEF2BFFEE3AFEED39FDD0E0FBE9
:1008E00050130BBB0003020B52ED13FDEE13FEEF92
:0808F00013FFEC13FC020B2ABC
:1008F800EC4D6011E8497017ED33EC3304600DE4FA
:10090800FCFFFEFD22E933E8330470F8020B4812BD
:100918000B1358046009E4CC2481500628500902BE
:100928000B52284003020B4FC0E0EB4A7044B980D9
:1009380006D0E0FB020B3EEF4E701CBD8008EBFFBB
:10094800EAFEE9FD80EBE98DF0A4FEE5F00209E19D
:10095800E9CDF9EAFEEBFFEF89F0A4FCE5F0CE89DA
:10096800F0A42EFFE435F0CD89F0A42DFEE435F097
:100978008067EF4E7005BD80D780C3EF8BF0A4ACC5
:10098800F0EE8BF0A42CFCE435F0F8EF8AF0A42C00
:10099800E5F038FCE433CB8DF0A42CFCE5F03BF813
:1009A800EE8AF0A42CFCE5F038F8E433CF89F0A403
:1009B8002CFCE5F038CF3400CE89F0A42FFFE5F009
:1009C8003EFEE433C98DF0A42EFEE5F039CD8AF061
:1009D800A42FFFE5F03EFEE43DFD33D0E0FB5007D9
:1009E8000BBB000F020B52EC2CFCEF33FFEE33FE77
:0609F800ED33FD020B2AA5
:1009FE00020B52EC5D046005E859047003020B48CB
:100A0E00120B13580460F6EC4860F2EC7004FDFE15
:100A1E00FF22C860DB2481C85009C39860025006CB
:100A2E00020B4F9850CAF582E9294B4A7005AB82EA
:100A3E00020B3E75F0007C1A7880C3EF9BEE9AEDA8
:100A4E0099400DC3EF9BFFEE9AFEED99FDE842F043
:100A5E00DC23ACF0D0E0FFD0E0FED0E0FDAB822096
:100A6E00E7101BEB60BAEC2CFCEF33FFEE33FEED20
:100A7E0033FD020B2AE803F830E705C0F075F000ED
:100A8E00EF2FFFEE33FEED33FD40B830E7C280AA04
:100A9E0075F020800E75F010800575F0087D007ED3
:100AAE00007F003392D530D503120D57EC33401032
:100ABE00EF33FFEE33FEED33FDEC33FCD5F0ED22DC
:0E0ACE00E5F0247EA2D513CC92E7CDCEFF2218
:100ADC00EDD2E7CD33EC3392D524814006E4FFFE12
:100AEC00FDFC22FCE4CFCECDCC24E0501174FF8071
:100AFC00EDC3CC13CCCD13CDCE13CECF13CF04700E
:070B0C00F030D5DE020D57A9
:100D9B00E5392425F8E60539227822300702782533
:100DAB00E475F001120D65020CFF2000EB7F2ED2D3
:100DBB00008018EF540F2490D43440D4FF30040B30
:100DCB00EF24BFB41A0050032461FFE53A6002150B
:100DDB003A053DE53D7002053C30070D7822E47580
:100DEB00F001120D65EF020D450215947403D20745
:100DFB008003E4C207F5398B228A238924E4F53A70
:100E0B00F53CF53DE53A60077F20120DD680F57570
:100E1B003BFFC201C200C202C203C205C206C20826
:100E2B00120DA4FF700D3007057F00120DE7AF3DCB
:100E3B00AE3C22B4255FC2D5C204120DA4FF24D050
:100E4B00B40A00501A75F00A783A30D50508B6FF87
:100E5B000106C6A426F620D5047002D20380D9243D
:100E6B00CFB41A00EF5004C2E5D2040210D4D20161
:100E7B0080C6D20080C0D20280BCD2D580BAD20547
:100E8B0080B47F20120DD62002077401B53A0040C2
:100E9B00F1120D9BFF120DD6020E0FD208D2068057
:100EAB0095120D9BFB120D9BFA120D9BF94A4B7081
:100EBB000679CB7A117BFF20022EE53A602A7E0061
:100ECB008E82758300120D1860060EEE653B70F076
:100EDB00C2D5EBC0E0EAC0E0E9C0E0EE121134D0BD
:100EEB00E0F9D0E0FAD0E0FB120CFFFF60AAEBC0F8
:100EFB00E0EAC0E0E9C0E0120DD6D0E02401F9D061
:100F0B00E03400FAD0E0FBE53B0460DCD53BD98054
:100F1B0087D20280A212111760F7E53B7001041211
:100F2B000B5DA93B600DE53B600914F53B1211BE4F
:100F3B00EF60F3EA30E702F404C3995077EAF42543
:100F4B003B0430E701E404F53B800D12111760C13F
:100F5B00EA053B253B120B5DEA7838F630E701E4F6
:100F6B00253B04D53B0420050114121134E4C0E0E9
:100F7B001211BE7838E6601320E70714F6120DBE87
:100F8B00802204F6D0E014C0E07F00120DBEE53BDA
:100F9B006007120DB5153B800B300503120DB5D054
:100FAB00E0020E0FD0E00480C512111760A0E53BE4
:100FBB0004120B5D7838EAF6E53B2005026001046C
:050FCB002404121134A2
:100FD00074FF04C0E01211BE120DBEE53B200502F5
:100FE0006003120DB5D0E0B53BE87F45120DC8781F
:100FF00038E67F2B30E7047F2DF404C0E0120DD6D5
:10100000D0E075F00A84C0F0120DBFD0E0120DBF21
:10101000020E0F791080027908C206C2088008D239
:10102000D5790A8004790AC2D5E53B047002F53B04
:10103000E4FAFDFEFF120D9BFC7B08200113120D4C
:101040009BFD7B1030000A120D9BFE120D9BFF7B57
:1010500020EC3382D592D55013C3E43000069FFFB5
:10106000E49EFEE42001039DFDE49CFCE4CBF8C279
:1010700001EC700CCFCECDCCE824F8F870F38017DB
:10108000C3EF33FFEE33FEED33FDEC33FCEB33FB0C
:10109000994002FB0FD8E9EB300105F8D0E0C448D5
:1010A000B201C0E00AEC4D4E4F78207B0070C2EADE
:1010B000B53B0040BCC0E0121136D0F0D0E02001BA
:1010C00004C4C0E0C4B201C0F0120DBFD0F0D5F02E
:1010D000EB020E0F120D750EAC531013580E7D4C13
:1010E0000E794210174F101F44101F490E924310E3
:1010F00025550F56460FB4450F204711EB500E8172
:101100002D0E852E0EA82B0E89230EA62011D42A73
:101110000E414800000EA0E53BB4FF03753B0612EC
:101120000D9BFC120D9BFD120D9BFE120D9BFF787B
:1011300031020B8C790AA2D5200314300509B910AD
:10114000020404B9080104A2D520060250010420BB
:1011500002689202B53A005034C0E07F2030031993
:101160007F30A20272067205500F12118DC202C2A8
:1011700006C205C2087F30800F300503E9C0E012C7
:101180000DD6300503D0E0F9D0E0B53ACC300517E4
:101190007F30B9100C120DD67F583004077F78804D
:1011A00003B90803120DD63002057F2D020DD67F3C
:1011B000202008F87F2B2006F322920280CF7F00A8
:1011C000B4070050052431F8E6FF22286E756C6CD8
:1011D0002900D201120D9B3001F8C201783A30D5B6
:1011E0000108F6020E412D50434958120D9B24036D
:1011F000B405004001E49011E693120DC7743A1251
:0A1200000DC7D203753A0402101363
:100B1300E9D2E7C933E833F892D5EDD2E7CD33EC28
:070B230033FC5002B2D522A1
:100B2A00EC30E7100FBF000C0EBE00080DBD00042C
:100B3A000BEB6014A2D5EB13FCED92E7FD2274FFD8
:100B4A00FCFDFEFF22E480F8A2D574FF13FC7D8031
:030B5A00E480EF45
:100B5D00F920E72824F950037907E4F42402FB185F
:100B6D00DBFDE624FB5014E9600DE4F618E604F60F
:0F0B7D00B40A08E4F6D9F57401F60A22C2D522AB
:100B8C00ED33EC3392D5FA602AB4FF33EDC2E77B38
:100B9C00FF60067A0B79B1E4227A0B79BA20D5047E
:100BAC007A0B79B5224E614E002B494E46002D49E9
:100BBC004E4600E47A08F608DAFC7B00740722E85B
:100BCC00C0E0ECC0E0EDC0E0EEC0E0EFC0E0EA75E4
:100BDC00F010A4CAABF075F04DA42BFBE435F0FC7F
:100BEC00EA2410FAEB34C5FBEC34D9FCEDC2E7FF78
:100BFC0075F056A4F42411C5F0F434C58FF0A42A72
:100C0C00E5F03BE43CF620E714120CBFD0E0FFD03B
:100C1C00E0FED0E0FDD0E0FC120A018014F40412D6
:100C2C000CBFD0E0FFD0E0FED0E0FDD0E0FC12081D
:100C3C00F8D0E0F8E6FAEDD2E7CD33EC332482FBC2
:100C4C00E4C3CF33CFCE33CECD33CD33DBF37B0701
:100C5C0075F00A846004F6081B0AE5F0F6088FF0BC
:100C6C00740AA4FFACF08EF0740AA42CFEACF05005
:100C7C00010C8DF0740AA42CFDE435F0F608DBDED3
:030C8C00740722C8
:100C8F003F8000004120000042C80000447A00006D
:100C9F00461C400047C35000497424004B189680EF
:100CAF004CBEBC205A0E1BCA6753C21C749DC5AEE6
:100CBF00FB60065407601C2323120CEDEB543860C5
:100CCF0009120CD9120CE81208F8ECF8EDF9EEFA4B
:100CDF00EFCB22EB120CE880F1543803241C900C5C
:100CEF008FFE93FC0EEE93FD0EEE930ECE93FF222E
:1013F700021477E493A3F8E493A34003F68001F281
:1014070008DFF48029E493A3F85407240CC8C333F6
:10141700C4540F4420C8834004F456800146F6DFC5
:10142700E4800B010204081020408090166DE47ED2
:10143700019360BCA3FF543F30E509541FFEE493BA
:10144700A360010ECF54C025E060A840B8E493A381
:10145700FAE493A3F8E493A3C8C582C8CAC583CAAC
:10146700F0A3C8C582C8CAC583CADFE9DEE780BE64
:011675000074
:100CFF00BB010689828A83E0225002E722BBFE02F3
:090D0F00E32289828A83E4932225
:100D1800BB010CE58229F582E5833AF583E0225090
:100D280006E92582F8E622BBFE06E92582F8E222DA
:0D0D3800E58229F582E5833AF583E49322F4
:100D4500BB010689828A83F0225002F722BBFE018D
:020D5500F32287
:0E0D5700C3E49FFFE49EFEE49DFDE49CFC22AD
:100D6500FAE6FB0808E6F925F0F618E6CA3AF6228F
:100D7500D083D082F8E4937012740193700DA3A30D
:100D850093F8740193F5828883E473740293686021
:060D9500EFA3A3A380DF21
:10159400EFB40A07740D12159F740A309811A899B4
:1015A400B8130CC2983098FDA899C298B811F630B7
:0715B40099FDC299F599228F
:0A165A003098FDAF99C2987E00227F
:00000001FF
