:0300000002120ADF
:0F120A00787FE4F6D8FD75A00075816F0212544D
:101299004E6F646F20313A204C6120706C617A6125
:1012A900206163616261206465206F63757061729A
:1012B90073650A004E6F646F20313A204C612070CB
:1012C9006C617A6120657374616261206F63757006
:1012D9006164610A004E6F646F20313A204C6120CD
:1012E900706C617A612065737461206C69627265E2
:1012F9000A00436F6E6E65637465640A0D004C44A1
:07130900523D2025640A009B
:0C1541000238000002220003024E0001EC
:10152F0075A9A4E4F5A3F5A2F5A4F5A58FA675A159
:02153F00532235
:0715610075EFAC75D8032201
:10150100759852758780758921758DDCD28ED29937
:07151100C2ACC2ABD2AF2255
:10151800D2DC20DCFDE5DA540FFEADD97C00E42DE9
:06152800FFEC3EFEC2DCF8
:01152E00229A
:09155800D287D285C283D2802221
:1014C200A2099283C2872086FD85A034D287C28575
:1014D2002084FD85A033D285E533FE7C00E42534EB
:0414E200FFEC3EFEDF
:0114E60022E3
:030053000214E7AD
:1014E700C0E0C0D00537E537B40207C280D28075A7
:0A14F7003700752A01D0D0D0E03292
:10137700C2091214C28E288F29AC28AD29E4120A9B
:10138700A37B007A6679D578C6120807120ADC8E25
:10139700288F29E4FFFE0FBF00010EBE03F8BFE848
:1013A700F5D2091214C28E2F8F30AC2FAD30E41254
:1013B7000AA3E4FBFA79FE78421208F8E4FBFA790B
:0D13C700C87842120A01120ADC8E2F8F3006
:0113D40022F6
:041449008F0C8D0D6A
:10144D00850C32753101E53170FC750E0112154EAA
:10145D00EFB50C05E4F50E8008E50DB4010312148B
:05146D009BE50E70E894
:011472002257
:10147300E4FD7F55121449E4FD7F3A1214497D01BE
:101483007F2C1214497F0912149BE4FD7F3D121433
:08149300497D017F03021449A9
:1013D500E523640345227018C3E53694DCE53594AE
:1013E50005502C75220075230275380075390122C8
:1013F500E523640245227017C3E53694DCE5359490
:1014050005400C75220075230375380075390222D5
:10141500E5236401452270097BFF7A127999120D43
:10142500FDE5236402452270097BFF7A1279BD121E
:101435000DFDE5236403452270097BFF7A1279DEF1
:04144500120DFD2265
:10131000E4F552F55312155812156112150175377F
:101320004FF52A7BFF7A1279FB120DFD7F01121512
:101330002FE52AB401FBC3E5539539E5386480F8FD
:10134000E552648098500A0553E553702505528094
:10135000211215188E358F367BFF7A137907853564
:1013600057853658120DFD1213D5121415E4F55297
:07137000F553E4F52A80BAF1
:10080000020B48E86480F8E933E83360110460F0D3
:10081000ED33EC337009E8FCE9FDEAFEEBFF22045E
:1008200060DED3EB9FEA9EE99DE8C2E78CF0C2F759
:1008300095F0400CE8CCF8E9CDF9EACEFAEBCFFB25
:10084000120B1385D0F05804700320D5B3E8047060
:10085000075002B2D5020B5292D5EC0460F7E4CCFB
:10086000C0E0C398F8603B94186008400DD0E0FBEE
:10087000020B2AE4FBFAC9FC8028E830E406E4C94C
:10088000FBE4CAFCE830E305E4C9CACBFCE8540742
:100890006010F8C3E913F9EA13FAEB13FBEC13FC4D
:1008A000D8F130F52FC3E49CFCEF9BFFEE9AFEEDF0
:1008B00099FDD0E0FBEF4E4D4C701222DB03020B92
:1008C0004FEC2CFCEF33FFEE33FEED33FDED30E764
:1008D000EB020B2AEF2BFFEE3AFEED39FDD0E0FBE9
:1008E00050130BBB0003020B52ED13FDEE13FEEF92
:0808F00013FFEC13FC020B2ABC
:1008F800EC4D6011E8497017ED33EC3304600DE4FA
:10090800FCFFFEFD22E933E8330470F8020B4812BD
:100918000B1358046009E4CC2481500628500902BE
:100928000B52284003020B4FC0E0EB4A7044B980D9
:1009380006D0E0FB020B3EEF4E701CBD8008EBFFBB
:10094800EAFEE9FD80EBE98DF0A4FEE5F00209E19D
:10095800E9CDF9EAFEEBFFEF89F0A4FCE5F0CE89DA
:10096800F0A42EFFE435F0CD89F0A42DFEE435F097
:100978008067EF4E7005BD80D780C3EF8BF0A4ACC5
:10098800F0EE8BF0A42CFCE435F0F8EF8AF0A42C00
:10099800E5F038FCE433CB8DF0A42CFCE5F03BF813
:1009A800EE8AF0A42CFCE5F038F8E433CF89F0A403
:1009B8002CFCE5F038CF3400CE89F0A42FFFE5F009
:1009C8003EFEE433C98DF0A42EFEE5F039CD8AF061
:1009D800A42FFFE5F03EFEE43DFD33D0E0FB5007D9
:1009E8000BBB000F020B52EC2CFCEF33FFEE33FE77
:0609F800ED33FD020B2AA5
:1009FE00020B52EC5D046005E859047003020B48CB
:100A0E00120B13580460F6EC4860F2EC7004FDFE15
:100A1E00FF22C860DB2481C85009C39860025006CB
:100A2E00020B4F9850CAF582E9294B4A7005AB82EA
:100A3E00020B3E75F0007C1A7880C3EF9BEE9AEDA8
:100A4E0099400DC3EF9BFFEE9AFEED99FDE842F043
:100A5E00DC23ACF0D0E0FFD0E0FED0E0FDAB822096
:100A6E00E7101BEB60BAEC2CFCEF33FFEE33FEED20
:100A7E0033FD020B2AE803F830E705C0F075F000ED
:100A8E00EF2FFFEE33FEED33FD40B830E7C280AA04
:100A9E0075F020800E75F010800575F0087D007ED3
:100AAE00007F003392D530D503120D57EC33401032
:100ABE00EF33FFEE33FEED33FDEC33FCD5F0ED22DC
:0E0ACE00E5F0247EA2D513CC92E7CDCEFF2218
:100ADC00EDD2E7CD33EC3392D524814006E4FFFE12
:100AEC00FDFC22FCE4CFCECDCC24E0501174FF8071
:100AFC00EDC3CC13CCCD13CDCE13CECF13CF04700E
:070B0C00F030D5DE020D57A9
:100D9B00E56B2457F8E6056B227854300702785739
:100DAB00E475F001120D65020CFF2000EB7F2ED2D3
:100DBB00008018EF540F2490D43440D4FF30040B30
:100DCB00EF24BFB41A0050032461FFE56C600215D9
:100DDB006C056FE56F7002056E30070D7854E47586
:100DEB00F001120D65EF020D4502149B7403D2073F
:100DFB008003E4C207F56B8B548A558956E4F56C76
:100E0B00F56EF56FE56C60077F20120DD680F575DA
:100E1B006DFFC201C200C202C203C205C206C208F4
:100E2B00120DA4FF700D3007057F00120DE7AF6F99
:100E3B00AE6E22B4255FC2D5C204120DA4FF24D01E
:100E4B00B40A00501A75F00A786C30D50508B6FF55
:100E5B000106C6A426F620D5047002D20380D9243D
:100E6B00CFB41A00EF5004C2E5D2040210D4D20161
:100E7B0080C6D20080C0D20280BCD2D580BAD20547
:100E8B0080B47F20120DD62002077401B56C004090
:100E9B00F1120D9BFF120DD6020E0FD208D2068057
:100EAB0095120D9BFB120D9BFA120D9BF94A4B7081
:100EBB000679CB7A117BFF20022EE56C602A7E002F
:100ECB008E82758300120D1860060EEE656D70F044
:100EDB00C2D5EBC0E0EAC0E0E9C0E0EE121134D0BD
:100EEB00E0F9D0E0FAD0E0FB120CFFFF60AAEBC0F8
:100EFB00E0EAC0E0E9C0E0120DD6D0E02401F9D061
:100F0B00E03400FAD0E0FBE56D0460DCD56DD980F0
:100F1B0087D20280A212111760F7E56D70010412DF
:100F2B000B5DA96D600DE56D600914F56D1211BEB9
:100F3B00EF60F3EA30E702F404C3995077EAF42543
:100F4B006D0430E701E404F56D800D12111760C1DB
:100F5B00EA056D256D120B5DEA786AF630E701E460
:100F6B00256D04D56D0420050114121134E4C0E085
:100F7B001211BE786AE6601320E70714F6120DBE55
:100F8B00802204F6D0E014C0E07F00120DBEE56DA8
:100F9B006007120DB5156D800B300503120DB5D022
:100FAB00E0020E0FD0E00480C512111760A0E56DB2
:100FBB0004120B5D786AEAF6E56D20050260010408
:050FCB002404121134A2
:100FD00074FF04C0E01211BE120DBEE56D200502C3
:100FE0006003120DB5D0E0B56DE87F45120DC878ED
:100FF0006AE67F2B30E7047F2DF404C0E0120DD6A3
:10100000D0E075F00A84C0F0120DBFD0E0120DBF21
:10101000020E0F791080027908C206C2088008D239
:10102000D5790A8004790AC2D5E56D047002F56DA0
:10103000E4FAFDFEFF120D9BFC7B08200113120D4C
:101040009BFD7B1030000A120D9BFE120D9BFF7B57
:1010500020EC3382D592D55013C3E43000069FFFB5
:10106000E49EFEE42001039DFDE49CFCE4CBF8C279
:1010700001EC700CCFCECDCCE824F8F870F38017DB
:10108000C3EF33FFEE33FEED33FDEC33FCEB33FB0C
:10109000994002FB0FD8E9EB300105F8D0E0C448D5
:1010A000B201C0E00AEC4D4E4F78207B0070C2EADE
:1010B000B56D0040BCC0E0121136D0F0D0E0200188
:1010C00004C4C0E0C4B201C0F0120DBFD0F0D5F02E
:1010D000EB020E0F120D750EAC531013580E7D4C13
:1010E0000E794210174F101F44101F490E924310E3
:1010F00025550F56460FB4450F204711EB500E8172
:101100002D0E852E0EA82B0E89230EA62011D42A73
:101110000E414800000EA0E56DB4FF03756D061288
:101120000D9BFC120D9BFD120D9BFE120D9BFF787B
:1011300063020B8C790AA2D5200314300509B9107B
:10114000020404B9080104A2D520060250010420BB
:1011500002689202B56C005034C0E07F2030031961
:101160007F30A20272067205500F12118DC202C2A8
:1011700006C205C2087F30800F300503E9C0E012C7
:101180000DD6300503D0E0F9D0E0B56CCC300517B2
:101190007F30B9100C120DD67F583004077F78804D
:1011A00003B90803120DD63002057F2D020DD67F3C
:1011B000202008F87F2B2006F322920280CF7F00A8
:1011C000B4070050052463F8E6FF22286E756C6CA6
:1011D0002900D201120D9B3001F8C201786C30D584
:1011E0000108F6020E412D50434958120D9B24036D
:1011F000B405004001E49011E693120DC7743A1251
:0A1200000DC7D203756C0402101331
:100B1300E9D2E7C933E833F892D5EDD2E7CD33EC28
:070B230033FC5002B2D522A1
:100B2A00EC30E7100FBF000C0EBE00080DBD00042C
:100B3A000BEB6014A2D5EB13FCED92E7FD2274FFD8
:100B4A00FCFDFEFF22E480F8A2D574FF13FC7D8031
:030B5A00E480EF45
:100B5D00F920E72824F950037907E4F42402FB185F
:100B6D00DBFDE624FB5014E9600DE4F618E604F60F
:0F0B7D00B40A08E4F6D9F57401F60A22C2D522AB
:100B8C00ED33EC3392D5FA602AB4FF33EDC2E77B38
:100B9C00FF60067A0B79B1E4227A0B79BA20D5047E
:100BAC007A0B79B5224E614E002B494E46002D49E9
:100BBC004E4600E47A08F608DAFC7B00740722E85B
:100BCC00C0E0ECC0E0EDC0E0EEC0E0EFC0E0EA75E4
:100BDC00F010A4CAABF075F04DA42BFBE435F0FC7F
:100BEC00EA2410FAEB34C5FBEC34D9FCEDC2E7FF78
:100BFC0075F056A4F42411C5F0F434C58FF0A42A72
:100C0C00E5F03BE43CF620E714120CBFD0E0FFD03B
:100C1C00E0FED0E0FDD0E0FC120A018014F40412D6
:100C2C000CBFD0E0FFD0E0FED0E0FDD0E0FC12081D
:100C3C00F8D0E0F8E6FAEDD2E7CD33EC332482FBC2
:100C4C00E4C3CF33CFCE33CECD33CD33DBF37B0701
:100C5C0075F00A846004F6081B0AE5F0F6088FF0BC
:100C6C00740AA4FFACF08EF0740AA42CFEACF05005
:100C7C00010C8DF0740AA42CFDE435F0F608DBDED3
:030C8C00740722C8
:100C8F003F8000004120000042C80000447A00006D
:100C9F00461C400047C35000497424004B189680EF
:100CAF004CBEBC205A0E1BCA6753C21C749DC5AEE6
:100CBF00FB60065407601C2323120CEDEB543860C5
:100CCF0009120CD9120CE81208F8ECF8EDF9EEFA4B
:100CDF00EFCB22EB120CE880F1543803241C900C5C
:100CEF008FFE93FC0EEE93FD0EEE930ECE93FF222E
:10121900021310E493A3F8E493A34003F68001F2C8
:1012290008DFF48029E493A3F85407240CC8C333D6
:10123900C4540F4420C8834004F456800146F6DFA5
:10124900E4800B0102040810204080901541E47EDF
:10125900019360BCA3FF543F30E509541FFEE4939A
:10126900A360010ECF54C025E060A840B8E493A361
:10127900FAE493A3F8E493A3C8C582C8CAC583CA8C
:10128900F0A3C8C582C8CAC583CADFE9DEE780BE44
:01154D00009D
:100CFF00BB010689828A83E0225002E722BBFE02F3
:090D0F00E32289828A83E4932225
:100D1800BB010CE58229F582E5833AF583E0225090
:100D280006E92582F8E622BBFE06E92582F8E222DA
:0D0D3800E58229F582E5833AF583E49322F4
:100D4500BB010689828A83F0225002F722BBFE018D
:020D5500F32287
:0E0D5700C3E49FFFE49EFEE49DFDE49CFC22AD
:100D6500FAE6FB0808E6F925F0F618E6CA3AF6228F
:100D7500D083D082F8E4937012740193700DA3A30D
:100D850093F8740193F5828883E473740293686021
:060D9500EFA3A3A380DF21
:10149B00EFB40A07740D1214A6740A309811A899A8
:1014AB00B8130CC2983098FDA899C298B811F630B1
:0714BB0099FDC299F5992289
:0A154E003098FDAF99C2987E00228C
:00000001FF
