:03000000020DA549
:100DA50043AF01787FE4F6D8FD75A0007581200278
:020DB5000DF23D
:100CC40041545330303D303034300A0D000041542B
:100CD4005330323D303030370A0D00004154533028
:100CE400333D3131313131313131313131313131E2
:100CF40031370A0D000041545A0A0D000041542BAB
:100D04004A4E0A0D000041542B55434153543A3086
:100D14003030303D00506C617A6120333A204C61B0
:100D240020706C617A612065737461206F637570E3
:100D34006164610A0D00506C617A6120333A204C81
:100D44006120706C617A612065737461206C6962E2
:100D540072650A0D00506C617A61203320657374EA
:100D6400E1206C696272650A0D00506C617A612041
:100D74003320657374E1206F6375706164610A0DDB
:100D8400004573706572616E646F206C6C616D6197
:100D940064610A0D00436F6E6E65637465640A0DC9
:010DA400004E
:1011000042001F000042003A00004200350000414A
:0D11100000390042000000034200370002D9
:10116E0075A9A4E4F5A3F5A2F5A4F5A58FA675A11E
:02117E005322FA
:0711890075EFAC75D80322DD
:10113B00759852758780758921758DDCD28ED29901
:0C114B00D2ACC2ABD2AFE490000BF0229B
:10115700D2DC20DCFDE5DA540FFEADD97C00E42DAE
:06116700FFEC3EFEC2DCBD
:01116D00225F
:09118000D287D285C283D28022FD
:10108400A2009283C2872086FD900011E5A0F0D2D1
:1010940087C2852084FD900010E5A0F0D285E0FE93
:0A10A400A3E07C002400FFEC3EFEF8
:0110AE00221F
:061015007BFF7A0D790A51
:10101B0090003FEBF0A3EAF0A3E9F0C29990003FF8
:10102B00E0FBA3E475F001120B88A9F0FA120B5D3B
:10103B00F5993099FD90003FE0FBA3E0FAA3E0F9AE
:08104B00120B5D70D6C2992260
:060FD6007B017A00792185
:100FDC00900042EBF0A3EAF0A3E9F0C2983098FD40
:100FEC00900042E0FBA3E475F001120B88A9F0FA23
:100FFC00E599120B76E599B40DE1900042E0FBA364
:09100C00E0FAA3E0F9E4020B761E
:03002300020E3793
:100E3700C0E0C0F0C083C082C0D075D000C2AC3063
:100E47009865E59964776005E599B4570B120FD655
:100E570090000B7401F0804DE599647A6005E5997F
:100E6700B45A0B120FD690000B7402F08037E59935
:100E770064746005E599B4540890000B7403F0801E
:100E870024E59964666005E599B4460890000B74FB
:100E970004F0801190000EE0B4010AA3E0B59905B3
:100EA70090000EE4F0C298D2ACD0D0D082D083D0DC
:040EB700F0D0E03265
:030053000210D9BF
:1010D900C0E0C083C082C0D090001EE004F0E0B43C
:1010E9000206C280D280E4F09000087401F0D0D0EA
:0710F900D082D083D0E03269
:100EBB00C200121084900006EEF0A3EFF0FDAC061A
:100ECB00E4120AA37B007A6679D578C6120807125A
:100EDB000ADC900006EEF0A3EFF0E4FFFE0FBF007C
:100EEB00010EBE03F8BFE8F5D20012108490000C7F
:100EFB00EEF0A3EFF0FDAC06E4120AA3E4FBFA79E3
:100F0B00FE78421208F8E4FBFA79C87842120A011B
:0B0F1B00120ADC90000CEEF0A3EFF0D7
:010F260022A8
:10111E0090003FEDF090000FEFF090000E7401F094
:0D112E0090000EE070FA90000E7401F022A7
:100F910090003EEFF07BFF7A0C79C412101BE4FD48
:100FA1007F4F12111E7BFF7A0C79D212101B121186
:100FB1001E7BFF7A0C79E012101B12111E7BFF7A47
:100FC1000C79FA12101B12111E7BFF7A0D79011296
:050FD100101B02111EBF
:10105300900000E07004A3E06402700C1210157B92
:10106300FF7A0D791912101B900000E07004A3E0C1
:101073006403700C1210157BFF7A0D793A12101B62
:01108300224A
:0B0F270012115790001CEEF0A3EFF039
:100F3200900000E0FEA3E0FF64034E7026C3900021
:100F42001DE094DC90001CE094055042900000E407
:100F5200F0A37402F090000B04F090001FE4F0A3E1
:100F620004F022EF64024E7025C390001DE094DC71
:100F720090001CE094054016900000E4F0A3740376
:0F0F8200F090000BF090001FE4F0A37402F02237
:100BAC0090000BE0B40113900037E4F0A304F0E4E0
:100BBC0090000BF0900035F0A3F090000BE0B40225
:100BCC0014900037E4F0A37402F0E490000BF09062
:100BDC000035F0A3F0900037E07004A3E0640170DE
:100BEC0042900008E0B4013B90001FE0FEA3E0FF40
:100BFC00C390003BE09FEE6480F890003AE0648084
:100C0C0098500EA3E004F0701590003AE004F080C8
:100C1C000D120F27121053E490003AF0A3F0E49059
:100C2C000008F0900037E07004A3E0640260030257
:100C3C000CC3120F27E4900008F090000BE0FFB4F7
:100C4C000305121053803DEFB4041A900000E070BD
:100C5C0004A3E06403700C1210157BFF7A0D795914
:100C6C0012101B801F90000BE0B4051E900000E0DA
:100C7C007004A3E06402700C1210157BFF7A0D79DE
:100C8C006E12101BE490000BF022C3900036E0941F
:100C9C0001900035E064809480501C1210157BFF8D
:100CAC007A0D798512101B900036E004F070DB9001
:080CBC000035E004F080D322B2
:1010AF0012113B121180121189120F9190001E74B0
:1010BF004FF0E4900008F07BFF7A0D799912101B26
:0A10CF007F0112116E120BAC80FBC2
:10080000020B48E86480F8E933E83360110460F0D3
:10081000ED33EC337009E8FCE9FDEAFEEBFF22045E
:1008200060DED3EB9FEA9EE99DE8C2E78CF0C2F759
:1008300095F0400CE8CCF8E9CDF9EACEFAEBCFFB25
:10084000120B1385D0F05804700320D5B3E8047060
:10085000075002B2D5020B5292D5EC0460F7E4CCFB
:10086000C0E0C398F8603B94186008400DD0E0FBEE
:10087000020B2AE4FBFAC9FC8028E830E406E4C94C
:10088000FBE4CAFCE830E305E4C9CACBFCE8540742
:100890006010F8C3E913F9EA13FAEB13FBEC13FC4D
:1008A000D8F130F52FC3E49CFCEF9BFFEE9AFEEDF0
:1008B00099FDD0E0FBEF4E4D4C701222DB03020B92
:1008C0004FEC2CFCEF33FFEE33FEED33FDED30E764
:1008D000EB020B2AEF2BFFEE3AFEED39FDD0E0FBE9
:1008E00050130BBB0003020B52ED13FDEE13FEEF92
:0808F00013FFEC13FC020B2ABC
:1008F800EC4D6011E8497017ED33EC3304600DE4FA
:10090800FCFFFEFD22E933E8330470F8020B4812BD
:100918000B1358046009E4CC2481500628500902BE
:100928000B52284003020B4FC0E0EB4A7044B980D9
:1009380006D0E0FB020B3EEF4E701CBD8008EBFFBB
:10094800EAFEE9FD80EBE98DF0A4FEE5F00209E19D
:10095800E9CDF9EAFEEBFFEF89F0A4FCE5F0CE89DA
:10096800F0A42EFFE435F0CD89F0A42DFEE435F097
:100978008067EF4E7005BD80D780C3EF8BF0A4ACC5
:10098800F0EE8BF0A42CFCE435F0F8EF8AF0A42C00
:10099800E5F038FCE433CB8DF0A42CFCE5F03BF813
:1009A800EE8AF0A42CFCE5F038F8E433CF89F0A403
:1009B8002CFCE5F038CF3400CE89F0A42FFFE5F009
:1009C8003EFEE433C98DF0A42EFEE5F039CD8AF061
:1009D800A42FFFE5F03EFEE43DFD33D0E0FB5007D9
:1009E8000BBB000F020B52EC2CFCEF33FFEE33FE77
:0609F800ED33FD020B2AA5
:1009FE00020B52EC5D046005E859047003020B48CB
:100A0E00120B13580460F6EC4860F2EC7004FDFE15
:100A1E00FF22C860DB2481C85009C39860025006CB
:100A2E00020B4F9850CAF582E9294B4A7005AB82EA
:100A3E00020B3E75F0007C1A7880C3EF9BEE9AEDA8
:100A4E0099400DC3EF9BFFEE9AFEED99FDE842F043
:100A5E00DC23ACF0D0E0FFD0E0FED0E0FDAB822096
:100A6E00E7101BEB60BAEC2CFCEF33FFEE33FEED20
:100A7E0033FD020B2AE803F830E705C0F075F000ED
:100A8E00EF2FFFEE33FEED33FD40B830E7C280AA04
:100A9E0075F020800E75F010800575F0087D007ED3
:100AAE00007F003392D530D503120B9EEC334010ED
:100ABE00EF33FFEE33FEED33FDEC33FCD5F0ED22DC
:0E0ACE00E5F0247EA2D513CC92E7CDCEFF2218
:100ADC00EDD2E7CD33EC3392D524814006E4FFFE12
:100AEC00FDFC22FCE4CFCECDCC24E0501174FF8071
:100AFC00EDC3CC13CCCD13CDCE13CECF13CF04700E
:070B0C00F030D5DE020B9E64
:100B1300E9D2E7C933E833F892D5EDD2E7CD33EC28
:070B230033FC5002B2D522A1
:100B2A00EC30E7100FBF000C0EBE00080DBD00042C
:100B3A000BEB6014A2D5EB13FCED92E7FD2274FFD8
:100B4A00FCFDFEFF22E480F8A2D574FF13FC7D8031
:030B5A00E480EF45
:100DB7000210AFE493A3F8E493A34003F68001F293
:100DC70008DFF48029E493A3F85407240CC8C3333D
:100DD700C4540F4420C8834004F456800146F6DF0C
:100DE700E4800B0102040810204080901100E47E8B
:100DF700019360BCA3FF543F30E509541FFEE49301
:100E0700A360010ECF54C025E060A840B8E493A3C7
:100E1700FAE493A3F8E493A3C8C582C8CAC583CAF2
:100E2700F0A3C8C582C8CAC583CADFE9DEE780BEAA
:01111D0000D1
:100B5D00BB010689828A83E0225002E722BBFE0296
:090B6D00E32289828A83E49322C9
:100B7600BB010689828A83F0225002F722BBFE015E
:020B8600F32258
:100B8800A3F8E0C5F025F0F0E58215827002158320
:060B9800E0C838F0E8227D
:0E0B9E00C3E49FFFE49EFEE49DFDE49CFC2268
:00000001FF
