:03000000020DB43A
:100DB40043AF01787FE4F6D8FD75A0007581200269
:020DC4000E011E
:100CCC0041545330303D303034300A0D0000415423
:100CDC005330323D303030370A0D00004154533020
:100CEC00333D3131313131313131313131313131DA
:100CFC0031370A0D000041545A0A0D000041542BA3
:100D0C004A4E0A0D000041542B55434153543A307E
:100D1C003030303D0000506C617A6120313A204C0B
:100D2C006120706C617A612065737461206F6375EA
:100D3C00706164610A0D0000506C617A6120313A77
:100D4C00204C6120706C617A612065737461206C39
:100D5C00696272650A0D0000506C617A6120312065
:100D6C00657374E1206C696272650A0D0000506C49
:100D7C00617A61203120657374E1206F6375706155
:100D8C0064610A0D00004573706572616E646F20BA
:100D9C006C6C616D6164610A0D0000436F6E6E6571
:080DAC00637465640A0D000088
:10110200420015000042001C00004200170000418E
:10111200000B0041001B00420000000342001900C6
:0111220001CB
:1011740075A9A4E4F5A3F5A2F5A4F5A58FA675A118
:021184005322F4
:07118F0075EFAC75D80322D7
:10114100759852758780758921758DDCD28ED299FB
:0C115100D2ACC2ABD2AFE490000BF02295
:10115D00D2DC20DCFDE5DA540FFEADD97C00E42DA8
:06116D00FFEC3EFEC2DCB7
:011173002259
:09118600D287D285C283D28022F7
:1010B000A2009283C2872086FD900011E5A0F0D2A5
:1010C00087C2852084FD900010E5A0F0D285E0FE67
:0A10D000A3E07C002400FFEC3EFECC
:0110DA0022F3
:060FD6007BFF7A0D791289
:100FDC00900027EBF0A3EAF0A3E9F0C29990002768
:100FEC00E0FBA3E475F001120B88A9F0FA120B5D7B
:100FFC00F5993099FD900027E0FBA3E0FAA3E0F906
:08100C00120B5D70D6C299229F
:10101400900024EBF0A3EAF0A3E9F0C2983098FD25
:10102400900024E0FBA3E475F001120B88A9F0FA08
:10103400E599120B76E599B40DE1900024E0FBA349
:09104400E0FAA3E0F9E4020B76E6
:03002300020E4684
:100E4600C0E0C083C082C0D0C2AC30985FE5996470
:100E5600776005E599B4570890000B7401F0804A55
:100E6600E599647A6005E599B45A0890000B740216
:100E7600F08037E59964746005E599B454089000EC
:100E86000B7403F08024E59964666005E599B44621
:100E96000890000B7404F0801190000EE0B4010A73
:100EA600A3E0B5990590000EE4F0C298D2ACD0D07C
:070EB600D082D083D0E032AE
:030053000210DBBD
:1010DB00C0E0C083C082C0D0900014E004F0E0B444
:1010EB000206C280D280E4F09000087401F0D0D0E8
:0710FB00D082D083D0E03267
:100F2A00C2001210B0900006EEF0A3EFF0FDAC067E
:100F3A00E4120AA37B007A6679D578C612080712EA
:100F4A000ADC900006EEF0A3EFF0E4FFFE0FBF000C
:100F5A00010EBE03F8BFE8F5D2001210B090000CE3
:100F6A00EEF0A3EFF0FDAC06E4120AA3E4FBFA7973
:100F7A00FE78421208F8E4FBFA79C87842120A01AC
:0B0F8A00120ADC90000CEEF0A3EFF068
:010F95002239
:10112400900027EDF090000FEFF090000E7401F0A6
:0D11340090000EE070FA90000E7401F022A1
:100F96007BFF7A0C79CC120FDCE4FD7F4F12112413
:100FA6007BFF7A0C79DA120FDC1211247BFF7A0CA4
:100FB60079E8120FDC1211247BFF7A0D7902120FE9
:100FC600DC1211247BFF7A0D7909120FDC02112441
:10104D00900000E07004A3E06402700C120FD67BD8
:10105D00FF7A0D7922120FDC900000E07004A3E0FE
:10106D006403700C120FD67BFF7A0D7944120FDCDE
:06107D00E490000BF022DC
:0B0EBD0012115D900012EEF0A3EFF0A8
:100EC800900000E0FEA3E0FF64034E7027C390008B
:100ED80013E094DC900012E094055045900000E483
:100EE800F0A37402F090000B7406F0900015E4F083
:100EF800A304F022EF64024E7027C3900013E0941D
:100F0800DC900012E094054018900000E4F0A3740F
:100F180003F090000B7406F0900015E4F0A374023F
:020F2800F022B5
:100BAC0090000BE0B40113900019E4F0A304F0E4FE
:100BBC0090000BF0900017F0A3F090000BE0B40243
:100BCC0014900019E4F0A37402F0E490000BF09080
:100BDC000017F0A3F0900019E07004A3E06401701A
:100BEC0042900008E0B4013B900015E0FEA3E0FF4A
:100BFC00C390001DE09FEE6480F890001CE06480C0
:100C0C0098500EA3E004F0701590001CE004F080E6
:100C1C000D120EBD12104DE490001CF0A3F0E490E8
:100C2C000008F0900019E07004A3E0640260030275
:100C3C000CCB120EBDE4900008F090000BE0B40356
:100C4C000312104D90000BE0FFB4060512104D80FE
:100C5C0069EFB40417900000E07004A3E064037023
:100C6C0059120FD67BFF7A0D7964801C90000BE033
:100C7C00B4051A900000E07004A3E06402703B120B
:100C8C000FD67BFF7A0D797A120FDC802DC3900082
:100C9C0018E09401900017E064809480501C120FAF
:100CAC00D67BFF7A0D7992120FDC900018E004F0DD
:100CBC0070DB900017E004F080D3E490000BF0227E
:1010830012114112118612118F121141120F9690F3
:101093000014744FF0E4900008F07BFF7A0D79A7F9
:0D10A300120FDC7F01121174120BAC80FBE8
:10080000020B48E86480F8E933E83360110460F0D3
:10081000ED33EC337009E8FCE9FDEAFEEBFF22045E
:1008200060DED3EB9FEA9EE99DE8C2E78CF0C2F759
:1008300095F0400CE8CCF8E9CDF9EACEFAEBCFFB25
:10084000120B1385D0F05804700320D5B3E8047060
:10085000075002B2D5020B5292D5EC0460F7E4CCFB
:10086000C0E0C398F8603B94186008400DD0E0FBEE
:10087000020B2AE4FBFAC9FC8028E830E406E4C94C
:10088000FBE4CAFCE830E305E4C9CACBFCE8540742
:100890006010F8C3E913F9EA13FAEB13FBEC13FC4D
:1008A000D8F130F52FC3E49CFCEF9BFFEE9AFEEDF0
:1008B00099FDD0E0FBEF4E4D4C701222DB03020B92
:1008C0004FEC2CFCEF33FFEE33FEED33FDED30E764
:1008D000EB020B2AEF2BFFEE3AFEED39FDD0E0FBE9
:1008E00050130BBB0003020B52ED13FDEE13FEEF92
:0808F00013FFEC13FC020B2ABC
:1008F800EC4D6011E8497017ED33EC3304600DE4FA
:10090800FCFFFEFD22E933E8330470F8020B4812BD
:100918000B1358046009E4CC2481500628500902BE
:100928000B52284003020B4FC0E0EB4A7044B980D9
:1009380006D0E0FB020B3EEF4E701CBD8008EBFFBB
:10094800EAFEE9FD80EBE98DF0A4FEE5F00209E19D
:10095800E9CDF9EAFEEBFFEF89F0A4FCE5F0CE89DA
:10096800F0A42EFFE435F0CD89F0A42DFEE435F097
:100978008067EF4E7005BD80D780C3EF8BF0A4ACC5
:10098800F0EE8BF0A42CFCE435F0F8EF8AF0A42C00
:10099800E5F038FCE433CB8DF0A42CFCE5F03BF813
:1009A800EE8AF0A42CFCE5F038F8E433CF89F0A403
:1009B8002CFCE5F038CF3400CE89F0A42FFFE5F009
:1009C8003EFEE433C98DF0A42EFEE5F039CD8AF061
:1009D800A42FFFE5F03EFEE43DFD33D0E0FB5007D9
:1009E8000BBB000F020B52EC2CFCEF33FFEE33FE77
:0609F800ED33FD020B2AA5
:1009FE00020B52EC5D046005E859047003020B48CB
:100A0E00120B13580460F6EC4860F2EC7004FDFE15
:100A1E00FF22C860DB2481C85009C39860025006CB
:100A2E00020B4F9850CAF582E9294B4A7005AB82EA
:100A3E00020B3E75F0007C1A7880C3EF9BEE9AEDA8
:100A4E0099400DC3EF9BFFEE9AFEED99FDE842F043
:100A5E00DC23ACF0D0E0FFD0E0FED0E0FDAB822096
:100A6E00E7101BEB60BAEC2CFCEF33FFEE33FEED20
:100A7E0033FD020B2AE803F830E705C0F075F000ED
:100A8E00EF2FFFEE33FEED33FD40B830E7C280AA04
:100A9E0075F020800E75F010800575F0087D007ED3
:100AAE00007F003392D530D503120B9EEC334010ED
:100ABE00EF33FFEE33FEED33FDEC33FCD5F0ED22DC
:0E0ACE00E5F0247EA2D513CC92E7CDCEFF2218
:100ADC00EDD2E7CD33EC3392D524814006E4FFFE12
:100AEC00FDFC22FCE4CFCECDCC24E0501174FF8071
:100AFC00EDC3CC13CCCD13CDCE13CECF13CF04700E
:070B0C00F030D5DE020B9E64
:100B1300E9D2E7C933E833F892D5EDD2E7CD33EC28
:070B230033FC5002B2D522A1
:100B2A00EC30E7100FBF000C0EBE00080DBD00042C
:100B3A000BEB6014A2D5EB13FCED92E7FD2274FFD8
:100B4A00FCFDFEFF22E480F8A2D574FF13FC7D8031
:030B5A00E480EF45
:100DC600021083E493A3F8E493A34003F68001F2B0
:100DD60008DFF48029E493A3F85407240CC8C3332E
:100DE600C4540F4420C8834004F456800146F6DFFD
:100DF600E4800B0102040810204080901102E47E7A
:100E0600019360BCA3FF543F30E509541FFEE493F1
:100E1600A360010ECF54C025E060A840B8E493A3B8
:100E2600FAE493A3F8E493A3C8C582C8CAC583CAE3
:100E3600F0A3C8C582C8CAC583CADFE9DEE780BE9B
:0111230000CB
:100B5D00BB010689828A83E0225002E722BBFE0296
:090B6D00E32289828A83E49322C9
:100B7600BB010689828A83F0225002F722BBFE015E
:020B8600F32258
:100B8800A3F8E0C5F025F0F0E58215827002158320
:060B9800E0C838F0E8227D
:0E0B9E00C3E49FFFE49EFEE49DFDE49CFC2268
:00000001FF
