:0300000002010DED
:0F010D00787FE4F6D8FD75A00075814C0201578C
:10005600415426460D0041545331323D3035393036
:100066000D0041545330303D313030300D00415495
:100076005330323D303130300D0041545330333D32
:100086003131313131313131313131313131313259
:100096000D0041542B4A4E0D0053652076612061B8
:1000A6002067756172646172206C6120706F73697C
:1000B60063696F6E20696E6369616C206465206C8C
:1000C60061207461726A657461200A00436F6E6E06
:1000D60065637465640A0D00456D70657A616D6FC0
:1000E600732061206C6565720D0041542B554341A8
:1000F60053543A303030302C0028582C59293A20A5
:0701060031352C32360A00EE
:04001D0002210000BC
:1004380075A9A4E4F5A3F5A2F5A4F5A58FA675A161
:0204480053223D
:07045D0075EFAC75D8032216
:10000300759852758780758921758DDCD28ED2994A
:0A001300D2ACC2ABD2AFE4F52C2250
:10042100D2DC20DCFDE5DA540FFEADD97C00E42DF1
:06043100FFEC3EFEC2DC00
:0104370022A2
:09045400D287D285C283D2802236
:1003E200A2009283C2872086FD85A035D287C2856E
:1003F2002084FD85A034D285E534FE7C00E42535D9
:04040200FFEC3EFECF
:0104060022D3
:030053000204079D
:10040700C0E0C0D00536E536B40207C280D2807599
:0A0417003600752901D0D0D0E03284
:060333007BFF7A00795601
:100339008B098A0A890BC299AB09050BE50BAA0A35
:100349007002050A14F912019CF5993099FDAB095F
:0C035900AA0AA90B12019C70DDC29922B7
:100026008B0C8A0D890EC2983098FDAB0C050EE537
:100036000EAA0D7002050D14F9E5991201B5E599A0
:0D004600B40DE3AB0CAA0DA90EE40201B548
:030023000202BC1A
:1002BC00C0E0C083C082C0D075D000C2AC309825DD
:1002CC00E599B474117B007A007937120026752DEC
:1002DC0037752C01800DE52EB40108E599B52F0377
:1002EC00752E00C298D2ACD0D0D082D083D0E03260
:1002FC000522E52270020521AC27AD28AE21FF12A4
:10030C0001C7ED4C7012D2001203E28E258F26C26B
:10031C00001203E28E238F24E4FFFE0FBF00010EB8
:06032C00EF64644E70F561
:0103320022A8
:04036500E4FD7F4BE9
:040369008F098D0A61
:10036D0085092F752E01E52E70FC750B0112044ABF
:10037D00EFB50905E4F50B8008E50AB40103120396
:05038D00BBE50B70E868
:010392002248
:100270001203331203657BFF7A00795C1203391293
:1002800003651203331203657BFF7A00796812035A
:10029000391203657BFF7A00797412033912036502
:1002A0007BFF7A0079801203391203657BFF7A00A5
:0C02B0007998120339E4FD7F4B020369CA
:10039300E4FD7F55120369E4FD7F3A1203697D0191
:1003A3007F2C1203697F091203BBE4FD7F3D120317
:0803B300697D017F030203696B
:10021C0075364FE4F529AF2D12043812045D120027
:10022C00031204541202707527007528057BFF7A9F
:10023C0000799F1203397BFF7A0079D2120339E5DA
:10024C0029B401FB7BFF7A0079DE1203397BFF7A3C
:10025C000079F01203397BFF7A0079FF120339E43D
:04026C00F52980DB15
:10011C0002021CE493A3F8E493A34003F68001F2DB
:10012C0008DFF48029E493A3F85407240CC8C333E4
:10013C00C4540F4420C8834004F456800146F6DFB3
:10014C00E4800B010204081020408090001DE47E26
:10015C00019360BCA3FF543F30E509541FFEE493A8
:10016C00A360010ECF54C025E060A840B8E493A36F
:10017C00FAE493A3F8E493A3C8C582C8CAC583CA9A
:10018C00F0A3C8C582C8CAC583CADFE9DEE780BE52
:0100210000DE
:10019C00BB010689828A83E0225002E722BBFE0261
:0901AC00E32289828A83E4932294
:1001B500BB010689828A83F0225002F722BBFE0129
:0201C500F32223
:1001C700BC000BBE0029EF8DF084FFADF022E4CC1C
:1001D700F875F008EF2FFFEE33FEEC33FCEE9DECE5
:1001E700984005FCEE9DFE0FD5F0E9E4CEFD22ED2B
:1001F700F8F5F0EE8420D21CFEADF075F008EF2F75
:10020700FFED33FD4007985006D5F0F222C398FD65
:050217000FD5F0EA2202
:1003BB00EFB40A07740D1203C6740A309811A8998A
:1003CB00B8130CC2983098FDA899C298B811F630A2
:0703DB0099FDC299F599227A
:0A044A003098FDAF99C2987E0022A1
:00000001FF
