:0300000002138B5D
:0F138B00787FE4F6D8FD75A00075817E0213D53A
:1012D60041545330303D303034300A0D0000415413
:1012E6005330323D303030370A0D00004154533010
:1012F600333D3131313131313131313131313131CA
:1013060031370A0D000041545A0A0D000041542B92
:101316004A4E0A0D00004E6F646F20313A204C6130
:1013260020706C617A612065737461206F637570DB
:101336006164610A0D004E6F646F20313A204C6182
:1013460020706C617A612065737461206C696272C9
:10135600650A0D004C44523D2025640A0D004C449C
:10136600523D2025640D004573706572616E646F91
:10137600206C6C616D61646100436F6E6E656374B1
:0513860065640A0D0082
:10167E0002410000025C000002570000015B000204
:07168E0022000302590001D4
:1016AD0075A9A4E4F5A3F5A2F5A4F5A58FA675A1DA
:0216BD005322B6
:0716D70075EFAC75D803228A
:10164A00759852758780758921758DDCD28ED299ED
:0A165A00D2ACC2ABD2AFE4F52D22F2
:10169600D2DC20DCFDE5DA540FFEADD97C00E42D6A
:0616A600FFEC3EFEC2DC79
:0116AC00221B
:0916CE00D287D285C283D28022AA
:1015DD00A2099283C2872086FD85A033D287C2855A
:1015ED002084FD85A032D285E532FE7C00E42533D2
:0415FD00FFEC3EFEC3
:0116010022C6
:061584007B007A007934BF
:10158A008B608A618962C299AB600562E562AA6171
:10159A007002056114F9120CFFF5993099FDAB60E0
:0C15AA00AA61A962120CFF70DDC2992238
:061551007B007A007943E3
:101557008B7C8A7D897EC2983098FDAB7C057EE5C1
:101567007EAA7D7002057D14F9E599120D45E5996E
:0D157700B40DE3AB7CAA7DA97EE4020D4516
:030023000214784C
:10147800C0E0C083C082C0D075D000C2AC30983301
:10148800E599B47708121551752D018024E599B4B2
:101498007A08121551752D028017E599B4740575EF
:1014A8002D03800DE530B40108E599B53103753099
:0E14B80000C298D2ACD0D0D082D083D0E03227
:030053000216642E
:10166400C0E0C0D00540E540B40207C280D2807516
:0A1674004000752A01D0D0D0E0320A
:10141A00C2091215DD8E288F29AC28AD29E4120ADB
:10142A00A37B007A6679D578C6120807120ADC8E81
:10143A00288F29E4FFFE0FBF00010EBE03F8BFE8A4
:10144A00F5D2091215DD8E2E8F2FAC2EAD2FE41298
:10145A000AA3E4FBFA79FE78421208F8E4FBFA7967
:0D146A00C87842120A01120ADC8E2E8F2F64
:011477002252
:0F16BF008D0C8F31753001E53070FC75300122D4
:10150D008F0D7BFF7A1279D612158AE4FD7F4F126B
:10151D0016BF7BFF7A1279E412158A1216BF7BFF74
:10152D007A1279F212158A1216BF7BFF7A13790C93
:10153D0012158A1216BF7BFF7A13791312158A7F43
:04154D004A0216BF79
:10162700E5236402452270097BFF7A13791C1215A2
:101637008AE5236403452270097BFF7A13793C12FC
:03164700158A22DF
:0714C6001216968E3E8F3FC7
:1014CD00E523640345227018C3E53F94DCE53E94A3
:1014DD0005502C75220075230275410075420122BD
:1014ED00E523640245227017C3E53F94DCE53E9485
:1014FD0005400C75220075230375410075420222CB
:10120A00E52DB4010D755900755A01E4F52DF55710
:10121A00F558E52DB4020D755900755A02E4F52DFD
:10122A00F557F558E55A64014559704AE52A6401AB
:10123A007044C3E55D9542E5416480F8E55C6480ED
:10124A0098500A055DE55D702A055C80261214C671
:10125A001216277563FF75641375655A853E668590
:10126A003F677B007A007934120DF7121584E4F592
:10127A005CF55DE4F52AE55A64024559704D12148D
:10128A00C6E4F52AE52DB403227563FF7564137568
:10129A006564853E66853F677B007A007934120D66
:1012AA00F7121584121627E4F52D22C3E558940186
:1012BA00E5576480948050137BFF7A13796D121579
:0C12CA008A0558E55870E4055780E022C2
:1016020012164A1216CE1216D712164A75404FE417
:10161200F52A7BFF7A13797F12158A7F011216ADA4
:0516220012120A80FB1A
:10080000020B48E86480F8E933E83360110460F0D3
:10081000ED33EC337009E8FCE9FDEAFEEBFF22045E
:1008200060DED3EB9FEA9EE99DE8C2E78CF0C2F759
:1008300095F0400CE8CCF8E9CDF9EACEFAEBCFFB25
:10084000120B1385D0F05804700320D5B3E8047060
:10085000075002B2D5020B5292D5EC0460F7E4CCFB
:10086000C0E0C398F8603B94186008400DD0E0FBEE
:10087000020B2AE4FBFAC9FC8028E830E406E4C94C
:10088000FBE4CAFCE830E305E4C9CACBFCE8540742
:100890006010F8C3E913F9EA13FAEB13FBEC13FC4D
:1008A000D8F130F52FC3E49CFCEF9BFFEE9AFEEDF0
:1008B00099FDD0E0FBEF4E4D4C701222DB03020B92
:1008C0004FEC2CFCEF33FFEE33FEED33FDED30E764
:1008D000EB020B2AEF2BFFEE3AFEED39FDD0E0FBE9
:1008E00050130BBB0003020B52ED13FDEE13FEEF92
:0808F00013FFEC13FC020B2ABC
:1008F800EC4D6011E8497017ED33EC3304600DE4FA
:10090800FCFFFEFD22E933E8330470F8020B4812BD
:100918000B1358046009E4CC2481500628500902BE
:100928000B52284003020B4FC0E0EB4A7044B980D9
:1009380006D0E0FB020B3EEF4E701CBD8008EBFFBB
:10094800EAFEE9FD80EBE98DF0A4FEE5F00209E19D
:10095800E9CDF9EAFEEBFFEF89F0A4FCE5F0CE89DA
:10096800F0A42EFFE435F0CD89F0A42DFEE435F097
:100978008067EF4E7005BD80D780C3EF8BF0A4ACC5
:10098800F0EE8BF0A42CFCE435F0F8EF8AF0A42C00
:10099800E5F038FCE433CB8DF0A42CFCE5F03BF813
:1009A800EE8AF0A42CFCE5F038F8E433CF89F0A403
:1009B8002CFCE5F038CF3400CE89F0A42FFFE5F009
:1009C8003EFEE433C98DF0A42EFEE5F039CD8AF061
:1009D800A42FFFE5F03EFEE43DFD33D0E0FB5007D9
:1009E8000BBB000F020B52EC2CFCEF33FFEE33FE77
:0609F800ED33FD020B2AA5
:1009FE00020B52EC5D046005E859047003020B48CB
:100A0E00120B13580460F6EC4860F2EC7004FDFE15
:100A1E00FF22C860DB2481C85009C39860025006CB
:100A2E00020B4F9850CAF582E9294B4A7005AB82EA
:100A3E00020B3E75F0007C1A7880C3EF9BEE9AEDA8
:100A4E0099400DC3EF9BFFEE9AFEED99FDE842F043
:100A5E00DC23ACF0D0E0FFD0E0FED0E0FDAB822096
:100A6E00E7101BEB60BAEC2CFCEF33FFEE33FEED20
:100A7E0033FD020B2AE803F830E705C0F075F000ED
:100A8E00EF2FFFEE33FEED33FD40B830E7C280AA04
:100A9E0075F020800E75F010800575F0087D007ED3
:100AAE00007F003392D530D503120D57EC33401032
:100ABE00EF33FFEE33FEED33FDEC33FCD5F0ED22DC
:0E0ACE00E5F0247EA2D513CC92E7CDCEFF2218
:100ADC00EDD2E7CD33EC3392D524814006E4FFFE12
:100AEC00FDFC22FCE4CFCECDCC24E0501174FF8071
:100AFC00EDC3CC13CCCD13CDCE13CECF13CF04700E
:070B0C00F030D5DE020D57A9
:100D9B00E5772463F8E605772278603007027863FD
:100DAB00E475F001120D65020CFF2000EB7F2ED2D3
:100DBB00008018EF540F2490D43440D4FF30040B30
:100DCB00EF24BFB41A0050032461FFE578600215CD
:100DDB0078057BE57B7002057A30070D7860E4754A
:100DEB00F001120D65EF020D450215B67403D20723
:100DFB008003E4C207F5778B608A618962E4F5783A
:100E0B00F57AF57BE57860077F20120DD680F575B6
:100E1B0079FFC201C200C202C203C205C206C208E8
:100E2B00120DA4FF700D3007057F00120DE7AF7B8D
:100E3B00AE7A22B4255FC2D5C204120DA4FF24D012
:100E4B00B40A00501A75F00A787830D50508B6FF49
:100E5B000106C6A426F620D5047002D20380D9243D
:100E6B00CFB41A00EF5004C2E5D2040210D4D20161
:100E7B0080C6D20080C0D20280BCD2D580BAD20547
:100E8B0080B47F20120DD62002077401B578004084
:100E9B00F1120D9BFF120DD6020E0FD208D2068057
:100EAB0095120D9BFB120D9BFA120D9BF94A4B7081
:100EBB000679CB7A117BFF20022EE578602A7E0023
:100ECB008E82758300120D1860060EEE657970F038
:100EDB00C2D5EBC0E0EAC0E0E9C0E0EE121134D0BD
:100EEB00E0F9D0E0FAD0E0FB120CFFFF60AAEBC0F8
:100EFB00E0EAC0E0E9C0E0120DD6D0E02401F9D061
:100F0B00E03400FAD0E0FBE5790460DCD579D980D8
:100F1B0087D20280A212111760F7E57970010412D3
:100F2B000B5DA979600DE579600914F5791211BE95
:100F3B00EF60F3EA30E702F404C3995077EAF42543
:100F4B00790430E701E404F579800D12111760C1C3
:100F5B00EA05792579120B5DEA7876F630E701E43C
:100F6B00257904D5790420050114121134E4C0E06D
:100F7B001211BE7876E6601320E70714F6120DBE49
:100F8B00802204F6D0E014C0E07F00120DBEE5799C
:100F9B006007120DB51579800B300503120DB5D016
:100FAB00E0020E0FD0E00480C512111760A0E579A6
:100FBB0004120B5D7876EAF6E579200502600104F0
:050FCB002404121134A2
:100FD00074FF04C0E01211BE120DBEE579200502B7
:100FE0006003120DB5D0E0B579E87F45120DC878E1
:100FF00076E67F2B30E7047F2DF404C0E0120DD697
:10100000D0E075F00A84C0F0120DBFD0E0120DBF21
:10101000020E0F791080027908C206C2088008D239
:10102000D5790A8004790AC2D5E579047002F57988
:10103000E4FAFDFEFF120D9BFC7B08200113120D4C
:101040009BFD7B1030000A120D9BFE120D9BFF7B57
:1010500020EC3382D592D55013C3E43000069FFFB5
:10106000E49EFEE42001039DFDE49CFCE4CBF8C279
:1010700001EC700CCFCECDCCE824F8F870F38017DB
:10108000C3EF33FFEE33FEED33FDEC33FCEB33FB0C
:10109000994002FB0FD8E9EB300105F8D0E0C448D5
:1010A000B201C0E00AEC4D4E4F78207B0070C2EADE
:1010B000B5790040BCC0E0121136D0F0D0E020017C
:1010C00004C4C0E0C4B201C0F0120DBFD0F0D5F02E
:1010D000EB020E0F120D750EAC531013580E7D4C13
:1010E0000E794210174F101F44101F490E924310E3
:1010F00025550F56460FB4450F204711EB500E8172
:101100002D0E852E0EA82B0E89230EA62011D42A73
:101110000E414800000EA0E579B4FF037579061270
:101120000D9BFC120D9BFD120D9BFE120D9BFF787B
:101130006F020B8C790AA2D5200314300509B9106F
:10114000020404B9080104A2D520060250010420BB
:1011500002689202B578005034C0E07F2030031955
:101160007F30A20272067205500F12118DC202C2A8
:1011700006C205C2087F30800F300503E9C0E012C7
:101180000DD6300503D0E0F9D0E0B578CC300517A6
:101190007F30B9100C120DD67F583004077F78804D
:1011A00003B90803120DD63002057F2D020DD67F3C
:1011B000202008F87F2B2006F322920280CF7F00A8
:1011C000B407005005246FF8E6FF22286E756C6C9A
:1011D0002900D201120D9B3001F8C201787830D578
:1011E0000108F6020E412D50434958120D9B24036D
:1011F000B405004001E49011E693120DC7743A1251
:0A1200000DC7D20375780402101325
:100B1300E9D2E7C933E833F892D5EDD2E7CD33EC28
:070B230033FC5002B2D522A1
:100B2A00EC30E7100FBF000C0EBE00080DBD00042C
:100B3A000BEB6014A2D5EB13FCED92E7FD2274FFD8
:100B4A00FCFDFEFF22E480F8A2D574FF13FC7D8031
:030B5A00E480EF45
:100B5D00F920E72824F950037907E4F42402FB185F
:100B6D00DBFDE624FB5014E9600DE4F618E604F60F
:0F0B7D00B40A08E4F6D9F57401F60A22C2D522AB
:100B8C00ED33EC3392D5FA602AB4FF33EDC2E77B38
:100B9C00FF60067A0B79B1E4227A0B79BA20D5047E
:100BAC007A0B79B5224E614E002B494E46002D49E9
:100BBC004E4600E47A08F608DAFC7B00740722E85B
:100BCC00C0E0ECC0E0EDC0E0EEC0E0EFC0E0EA75E4
:100BDC00F010A4CAABF075F04DA42BFBE435F0FC7F
:100BEC00EA2410FAEB34C5FBEC34D9FCEDC2E7FF78
:100BFC0075F056A4F42411C5F0F434C58FF0A42A72
:100C0C00E5F03BE43CF620E714120CBFD0E0FFD03B
:100C1C00E0FED0E0FDD0E0FC120A018014F40412D6
:100C2C000CBFD0E0FFD0E0FED0E0FDD0E0FC12081D
:100C3C00F8D0E0F8E6FAEDD2E7CD33EC332482FBC2
:100C4C00E4C3CF33CFCE33CECD33CD33DBF37B0701
:100C5C0075F00A846004F6081B0AE5F0F6088FF0BC
:100C6C00740AA4FFACF08EF0740AA42CFEACF05005
:100C7C00010C8DF0740AA42CFDE435F0F608DBDED3
:030C8C00740722C8
:100C8F003F8000004120000042C80000447A00006D
:100C9F00461C400047C35000497424004B189680EF
:100CAF004CBEBC205A0E1BCA6753C21C749DC5AEE6
:100CBF00FB60065407601C2323120CEDEB543860C5
:100CCF0009120CD9120CE81208F8ECF8EDF9EEFA4B
:100CDF00EFCB22EB120CE880F1543803241C900C5C
:100CEF008FFE93FC0EEE93FD0EEE930ECE93FF222E
:10139A00021602E493A3F8E493A34003F68001F251
:1013AA0008DFF48029E493A3F85407240CC8C33354
:1013BA00C4540F4420C8834004F456800146F6DF23
:1013CA00E4800B010204081020408090167EE47E1F
:1013DA00019360BCA3FF543F30E509541FFEE49318
:1013EA00A360010ECF54C025E060A840B8E493A3DF
:1013FA00FAE493A3F8E493A3C8C582C8CAC583CA0A
:10140A00F0A3C8C582C8CAC583CADFE9DEE780BEC1
:011695000054
:100CFF00BB010689828A83E0225002E722BBFE02F3
:090D0F00E32289828A83E4932225
:100D1800BB010CE58229F582E5833AF583E0225090
:100D280006E92582F8E622BBFE06E92582F8E222DA
:0D0D3800E58229F582E5833AF583E49322F4
:100D4500BB010689828A83F0225002F722BBFE018D
:020D5500F32287
:0E0D5700C3E49FFFE49EFEE49DFDE49CFC22AD
:100D6500FAE6FB0808E6F925F0F618E6CA3AF6228F
:100D7500D083D082F8E4937012740193700DA3A30D
:100D850093F8740193F5828883E473740293686021
:060D9500EFA3A3A380DF21
:1015B600EFB40A07740D1215C1740A309811A89970
:1015C600B8130CC2983098FDA899C298B811F63095
:0715D60099FDC299F599226D
:00000001FF
